:020000040800F2
:100000004807002439030008FB2500082F250008B5
:10001000F9250008A3040008D12900080000000009
:10002000000000000000000000000000412800085F
:10003000A504000800000000FD2500084328000872
:100040005303000853030008530300085303000838
:100050005303000853030008530300085303000828
:100060005303000853030008530300085303000818
:100070005303000853030008530300085303000808
:100080005303000853030008530300082105000828
:1000900053030008530300085303000853030008E8
:1000A00053030008530300085303000853030008D8
:1000B00053030008530300085303000853030008C8
:1000C00053030008530300085303000853030008B8
:1000D00053030008530300085303000853030008A8
:1000E00053030008530300080000000053030008F6
:1000F0005303000853030008530300085303000888
:100100005303000853030008530300085303000877
:100110005303000853030008530300085303000867
:100120005303000853030008530300085303000857
:100130005303000853030008530300085303000847
:1001400000000000000000000000000000000000AF
:100150005303000853030008530300085303000827
:100160005303000853030008530300085303000817
:100170005303000853030008530300080000000065
:1001800053030008530300085303000853030008F7
:1001900053030008530300085303000853030008E7
:1001A00053030008530300085303000853030008D7
:1001B00053030008530300085303000853030008C7
:1001C00053030008530300085303000853030008B7
:1001D00053030008530300085303000853030008A7
:1001E0005303000853030008530300085303000897
:1001F0005303000853030008530300085303000887
:100200005303000853030008530300085303000876
:100210005303000853030008530300085303000866
:1002200053030008530300085303000800000000B4
:1002300053030008530300080000000053030008A4
:100240005303000853030008530300085303000836
:100250005303000853030008530300085303000826
:100260005303000853030008530300085303000816
:100270005303000853030008530300080000000064
:100280005303000853030008530300080000000054
:10029000000000005303000800F002F800F03CF8F2
:1002A0000AA090E8000C82448344AAF10107DA45D1
:1002B00001D100F031F8AFF2090EBAE80F0013F0E7
:1002C000010F18BFFB1A43F0010318471428000060
:1002D00034280000103A24BF78C878C1FAD85207F1
:1002E00024BF30C830C144BF04680C6070470000B0
:1002F0000023002400250026103A28BF78C1FBD82F
:10030000520728BF30C148BF0B6070471FB502F0CD
:10031000ABFB1FBD10B510BD00F08AF81146FFF70A
:10032000F5FF02F067FB00F0A8F803B4FFF7F2FF57
:1003300003BC00F0AFF800000948804709480047B7
:10034000FEE7FEE7FEE7FEE7FEE7FEE7FEE7FEE785
:10035000FEE7FEE704480549054A064B70470000E2
:10036000ED280008990200084801002448070024ED
:10037000480300244803002410B5203AC0F00B8045
:10038000B1E81850203AA0E81850B1E81850A0E899
:100390001850BFF4F5AF5FEA027C24BFB1E81850F3
:1003A000A0E8185044BF18C918C0BDE810405FEA63
:1003B000827C24BF51F8043B40F8043B08BF7047DF
:1003C000D20728BF31F8023B48BF11F8012B28BFE4
:1003D00020F8023B48BF00F8012B70474FF00002A5
:1003E00000B5134694469646203922BFA0E80C502B
:1003F000A0E80C50B1F12001BFF4F7AF090728BF06
:10040000A0E80C5048BF0CC05DF804EB890028BF81
:1004100040F8042B08BF704748BF20F8022B11F0AA
:10042000804F18BF00F8012B704770477047704726
:10043000754600F02BF8AE4605006946534620F09D
:100440000700854618B020B5FFF784FFBDE82040BF
:100450004FF000064FF000074FF000084FF0000B80
:1004600021F00701AC46ACE8C009ACE8C009ACE833
:10047000C009ACE8C0098D46704710B50446AFF31B
:1004800000802046BDE81040FFF74FBF004870478E
:10049000E400002401491820ABBEFEE7260002005C
:1004A0007047FEE77047000072B6034C012202213C
:1004B000204600F091FEF9E70000025830B589B0FF
:1004C000062100240125019404200294CDE90501B0
:1004D000114801A9CDE9034500F0D6F9B0B90222CF
:1004E0000D4800231146009400F00DFA70B90A4837
:1004F00000F02FFD094C08B1657007E006480022A6
:10050000012100F049F918B102206070FFF7CCFF1B
:10051000257009B030BD0000440000240000002414
:10052000014800F00DBA000044000024F0B5036853
:100530004FF6FC716D4C426BD3F884508D4345EA05
:100540008205C3F88450036853F8845F068F25F44E
:100550007F0545EA06451D60836B654D9F1802685F
:10056000D2F888308B4343EA8703C2F888300268A8
:1005700052F8883F868F23F4FE0343EA0643136054
:10058000066856F8A03FC26B8B4307EB420243EA72
:1005900082033360076857F8A03FB0F8406023F447
:1005A000FE0343EA06433B60D0E9103603FB062214
:1005B0000368D3F8B0608E4346EA8206C3F8B060A1
:1005C0000368B0F84860D3F8B07027F4FE0747EA34
:1005D0000646C3F8B060D0E91267036806FB07223D
:1005E000D3F8AC608E4346EA8206C3F8AC60D0E92B
:1005F0001467036806FB0722D3F8F0608E4346EACF
:100600008206C3F8F0600368B0F85860D3F8F07061
:1006100027F47C1747EA0646C3F8F0600368876D45
:1006200053F8C06F02EB47028E4346EA820119601D
:100630000168B0F85C20D1F8C03023F47C1343EAA1
:100640000242C1F8C020016890F86020D1F8C030A3
:1006500023F07C5343EA0262C1F8C020416B04EBF3
:100660008101C166826B01EB82020267C36B02EB00
:10067000C3024267D0E91034634302EB830282670E
:10068000D0E91234634302EB8302C267D0E9143429
:10069000634302EB8302C0F88020836D02EBC30347
:1006A000C0F88430C46D826E544303EB8403C0F8F9
:1006B0008830046E544303EB8402C0F89020AA42B1
:1006C0000AD9D0F89C20032142F02002C0F89C20D7
:1006D00080F898100120F0BD002200E004C1D0F89D
:1006E00090308B42FAD80020F0BD000000AC0040F2
:1006F000FCD30040F0B58E680C69D1E9005744EA9C
:100700000604DFB145F080452C43866ED1E906C56D
:100710004F695E4391F8203045EA0C05D0F884E03B
:100720000020D1F80CC047EA0363114F1D430EEBC4
:10073000860345EA0C05E3E8024511E044EA8544F6
:10074000E3E71418155CA67894F803C094F801E068
:10075000360445EA0C6446EA0E252C43001D10C3FE
:10076000CC6807EB144424788442EAD8F0BD00003A
:10077000742A000870B5044600F03AFD0546601C76
:1007800002D004480078044400F032FD401BA0422F
:10079000FAD370BD0C00002410B590F89830012BEE
:1007A00009D0022B07D0D0F89C1041F00201C0F80C
:1007B0009C10012010BD03689C6D0C4203D1DC6DC0
:1007C00044F0010404E09C6D31EA04041FD00324CA
:1007D000DC658B0505D50368D3F8E0401443C3F806
:1007E000E0404B0505D50368D3F8E4401443C3F853
:1007F000E4400068084A01EA0203446D074A1C43CA
:100800004465106840EA91701060002010BDDC6DF6
:1008100044F00204DCE70000FFFFCF3F14A80040D3
:1008200070B5044690F89800022804D0D4F89C00D3
:1008300040F008000DE02068D0F8C03013F07C5F75
:100840000BD0D0F8C4309B020CD5D4F89C0040F4F7
:100850000070C4F89C00012070BDD4F89C0040F0EA
:100860002000F6E7D0F8C400C0F3044520462B462C
:10087000FFF740FF21680120A840C1F8D000C4F86C
:100880009400002070BD704770B590F89820012A40
:1008900009D0022A07D0D0F89C1041F00201C0F81C
:1008A0009C10012070BD0B68CA6883B10B69072AD0
:1008B00043EA427325D00C7A4A6942EA8472496855
:1008C000006F00EBC100C0E90032002070BD072AB4
:1008D0000DD00C7AD6060D8A4B6943EA847246EA3B
:1008E0000543C06E49681A4340F82120EDE70B8AA2
:1008F0004FF06055D1E9062442EA034245EA042359
:10090000EFE78A69DBE730B590F89850039C012D3A
:1009100007D0D0F89C1041F00401C0F89C100120D1
:1009200030BD0D01016845EA820040EA43002043E2
:10093000C1F88000002030BD70477047704700004C
:100940002DE9FC5FDFF804B3044600680BF10402F4
:100950008246DBF80070D2F80080026D416D036DB5
:10096000466DD0F85090456DD0F850C009F0F000B9
:1009700005EA0009DAF85450DAF8500000F0607E19
:10098000B80700EA88700090DAF85470DAF85480FA
:1009900002F4704003F00F02014001910CF071531A
:1009A0005FEAC85106EA020605EA030507EA0E07F0
:1009B0000DD5DAF85000C00509D500214FF4807339
:1009C000CAF85030CBF800102046FFF7B7FF206878
:1009D000416D490511D5016D49050ED5D0F8DC20D2
:1009E000D0F8E41000234FF48068C0F85080114024
:1009F000CBF80030204600F0CBFADFF854820098A4
:100A000050B12268830F00EA08001065CBF800306F
:100A100020460099FFF737FF019850B12268830FF5
:100A200000EA08001065CBF800302046019900F07C
:100A3000B1FA56B12268B30F06EA08001065CBF888
:100A400000303146204600F077FAB9F1000F0BD0A4
:100A500022684FEA997309EA08001065CBF8003064
:100A60004946204600F074FA2068416D09050BD50F
:100A7000016D090508D500214FF400630365CBF82B
:100A80000010204600F087FA2068416D890511D5D5
:100A9000016D89050ED5D0F8D820D0F8E0100023DC
:100AA0004FF4007CC0F850C01140CBF80030204615
:100AB00000F06FFA2068416D09030BD5016D090341
:100AC00008D500214FF400230365CBF80010204621
:100AD00000F030FA2068416DC9030BD5016DC903E0
:100AE00008D500214FF480330365CBF80010204671
:100AF00000F04DFA2068416D49030BD5016D4903A3
:100B000008D500214FF480230365CBF80010204660
:100B100000F03CFA2068416D89030ED5016D890310
:100B20000BD500214FF400330365CBF80010D4F847
:100B30009C0040F08000C4F89C0057B12268BB0FB5
:100B400007EA08001065CBF8003039462046FFF769
:100B5000F4FE5DB12268AB0F05EA08001065CBF822
:100B60000030D4F89C002843C4F89C003949206820
:100B7000884262D160688146806880075DD0D9F87C
:100B80002060D9F82410D9F82080D9F82400D9F8A9
:100B90002030D9F82470D9F82020D9F82450D9F879
:100BA00020C002F4FC4206F00F0AD9F82460154078
:100BB00008F0300803F4C0730CF4F02C11EA0A01B9
:100BC00000EA080807EA030706EA0C0604D0C9F899
:100BD0002010204600F0D7F9B8F1000005D0616878
:100BE00008624146204600F0D0F96068416A490633
:100BF0000CD5016A490609D5C16BC26B402303625B
:100C0000090C204602F03F0200F0BEF92FB16068E7
:100C100007623946204600F0B5F935B160680562D3
:100C2000D4F89C002843C4F89C0036B16068066282
:100C3000D4F89C003043C4F89C00D4F89C000028F1
:100C400002D02046FFF778FEBDE8FC9F10A80040C8
:100C5000FFFFCF3F00A000402DE9F04194B08D4947
:100C60004C2204466846FFF787FB64B18A4D206832
:100C7000A84202D100F58070606094F898004FF0AF
:100C8000000820B108E0012014B0BDE8F081204642
:100C900084F8998000F002F92068816921F0100140
:100CA000816100F0A5FA0327064604E000F0A0FAEF
:100CB000801B0A2811D8206880690007F6D42068B4
:100CC000816941F00101816100F092FA06460DE070
:100CD00000F08EFA801B0A2808D9D4F89C0040F056
:100CE0000100C4F89C0084F89870CCE72068806903
:100CF000C007EDD02068816941F002018161207C4C
:100D000001282068816937D041F040018161607C11
:100D100001282068816932D021F480418161A07C62
:100D20000128206881692DD041F4805181612068BB
:100D3000A268816921F44071114381612068816951
:100D400021F0A40181612068016921F01001016195
:100D5000E068012819D010B302281BD020688169EF
:100D600041F0800181612068016941F01001016159
:100D7000E06803280ED012E021F04001C6E741F4FC
:100D80008041CBE721F48051D0E72068816941F0B0
:100D9000040103E02068816941F020018161207E27
:100DA0006FF0FF02D4E90773A68A1102400602EB36
:100DB0000727A0F10070384327685B1E184301EB3A
:100DC00006463043F861A068B0F5407F11D104F1C8
:100DD0002800A68C6FF00F0C89C801EB0641401E5D
:100DE00002EB0322104322680CEB0713184308435D
:100DF000D060206E30B12068626ED0F8C010114310
:100E0000C0F8C010D4E917126846D14209D0216851
:100E1000A36E51F8C82F50F8233022F007021A436E
:100E20000A60216C49B12168626C51F8BC3F50F8EE
:100E3000226023F0070232430A60A16C51B121689D
:100E4000E36C51F8BC2F50F8233022F0700242EAD4
:100E500003120A60216D51B12168626D51F8BC3FE7
:100E600050F8220023F4E06242EA00200860206883
:100E7000A84204D16068816821F003018160C4F850
:100E800094800121C4F89C8084F898102046FFF7D4
:100E90004DFBF9E6842A000800A0004010B5B6B06A
:100EA000044614212FA8FFF799FABC216846FFF7E2
:100EB00095FA1D492068884233D14FF400400090D4
:100EC000410368461B9100F067FA08B1FFF7ECFA9E
:100ED0001648016841F480710160006800F4807078
:100EE000349012480C38016841F00101016000683B
:100EF0000923022200F0010034900020CDE93203E2
:100F00004FF4C0512F91CDE9302009482FA900F0AE
:100F100043F800221320114600F0E2F9132000F0FC
:100F2000D1F936B010BD000000A00040EC440258DA
:100F30000000025870470000C80710B504D00349EC
:100F400004204870FFF7B0FA10BD00000000002434
:100F5000704790F89810012907D0D0F89C1041F004
:100F60000401C0F89C1001207047022180F89810FD
:100F7000002201688B6923F001038B61C0F89C207B
:100F8000104670477047704770477047704770470A
:100F900070477047704770472DE9FC4F01257E4C24
:100FA00000234FF0030A4FF0B04E4FF00F0BEBE071
:100FB00005FA03F637403A0077D04F68012F05D085
:100FC000022F03D0112F01D0122F1AD187684FEAB8
:100FD0004308D1F80CC00AFA08F927EA09070CFA05
:100FE00008FC4CEA070CC0F808C0476891F804C038
:100FF000B743CCF3001C0CFA03FC4CEA070CC0F816
:1010000004C0C6684FEA430CD1F80880E1460AFAEA
:101010000CF7BE43019708FA09F848EA0608C0F839
:101020000C804E68022E01D0122E12D1DE084FEA3B
:10103000437C00EB860600960F69366A4FEADC6C4B
:101040000BFA0CF807FA0CF726EA08063743009E5D
:1010500037620E790768DDF804C006F0030606FA69
:1010600009F627EA0C073E4306604E68F6001CD5D9
:101070004A4E376847F00207376036689F0706F028
:101080000206009623F0030606F1B046B1463F0F74
:10109000D6F80864DFF808810BFA07FC404526EA19
:1010A0000C0603D14FF0000C41E06CE0DFF8F4C017
:1010B000604502D14FF0010C39E0DFF8ECC060452B
:1010C00002D14FF0020C32E0DFF8E0C0604502D1FF
:1010D0004FF0030C2BE0DFF8D8C0604502D14FF091
:1010E000040C24E0DFF8CCC0604502D14FF0050CC1
:1010F0001DE0DFF8C4C0604502D14FF0060C16E0D9
:10110000DFF8B8C0604502D14FF0070C0FE0DFF800
:10111000B0C0604502D14FF0080C08E0DFF8A4C071
:10112000604502D14FF0090C01E04FF00A0C0CFAB7
:1011300007FC4CEA060CC9F808C426684F6826EA82
:101140000206FF0300D51643266066684F6826EA4C
:101150000206BF0300D516436660D1F804C0764688
:10116000DEF800705FEACC2C27EA020700D51743AF
:101170003760D1F804C077685FEA8C2C27EA020751
:1011800000D5174377605B1C0A681746DA407FF486
:101190000FAFBDE8FC8F000080000058F4440258F7
:1011A000000002580004025800080258000C0258BF
:1011B000001002580014025800180258001C02586F
:1011C0000020025800240258426921EA02030A4022
:1011D00043EA0241816170470AB1816170470904A5
:1011E000FBE7000001480068000C70470010005C3D
:1011F00001488068704700000C00002402488168A4
:1012000002781144816070470C000024032010B55F
:1012100000F086F800F058FE0F4A10491468136871
:10122000C4F3032203F00F038A5CC95C02F01F02BF
:1012300001F01F01D0400A4A20FA01F1116009496A
:101240000860002000F010F808B1012010BD00F087
:101250002BF8002010BD000018440258D02A0008C6
:101260001C0000241800002470B50D4D0446287899
:10127000A0B14FF47A71B1FBF0F00A490968B1FBF3
:10128000F0F001F041F948B9102C07D200222146B4
:10129000501E00F025F800206C6070BD012070BD6C
:1012A0000C00002418000024054808B5016841F02E
:1012B00002010160006800F00200009008BD00001B
:1012C000F4440258002809DB410900F01F0289009C
:1012D000012001F1E0219040C1F8000170470000B9
:1012E0000E4BF0B41B680D46C3F30223C3F107068F
:1012F000042E00D90426191D072901D2002300E07D
:10130000DB1E012404FA06F19C40491E2940641E9C
:10131000994014402143F0BC01F05BBB0CED00E0B0
:10132000064900F0070210B54FF6FF040868044BA9
:10133000204040EA02201843086010BD0CED00E098
:101340000000FA05134970B50A68D243520705D563
:10135000096801F00701814213D118E00A6822F000
:10136000070202430A60FFF743FF0A4D4FF47A7603
:101370000446083D07E000BFFFF73AFF001BB042FC
:1013800001D9012070BD2868C0438004F4D4002036
:1013900070BD00000C4802582DE9FC5F044650F86F
:1013A000241B002500902E460801FE4FDFF8F8832D
:1013B0001DD5606E50B1B0F5801F0CD0B0F5001F88
:1013C0000ED0B0F5401F1DD001250FE0386840F465
:1013D0000030386016E00221201D01F011F903E011
:1013E0000098022101F09CF905000BD02E462088C0
:1013F000C00523D5606D05281ED2DFE800F00C1172
:10140000161B1B00626ED8F8001021F44011114326
:10141000C8F80010EBE7386840F40030386009E0A5
:101420000021201D01F0ECF803E00098002101F0FC
:1014300077F905466DB100E001252E46208880052C
:1014400028D5A06D80281ED00CDC90B140280ED18C
:1014500014E0626DD8F8001021F007011143C8F8BC
:101460000010EBE7C02813D0B0F5807F10D0012525
:101470000FE0386840F40030386009E00021201D9A
:1014800001F0BEF803E00098002101F049F905469B
:1014900095B12E462088DFF81093400509F1080920
:1014A0002CD5D4F8A400B0F5800F20D00DDCA0B16D
:1014B000B0F5001F0FD115E0A26DD8F8001021F48F
:1014C000E0711143C8F80010E4E7B0F5C00F13D085
:1014D000B0F5000F10D001250FE0386840F400305F
:1014E000386009E00021201D01F08AF803E000982F
:1014F000002101F015F9054675B12E46208800053A
:101500002DD5D4F8A800B0F1007F21D00EDCA8B111
:10151000B0F1807F10D116E0D4F8A420D9F80010E3
:1015200021F460011143C9F80010E7E7B0F1407FF2
:1015300013D0B0F1806F10D001250FE0386840F46F
:101540000030386009E00021201D01F059F803E067
:101550000098002101F0E4F805466DB12E462068A0
:1015600080011FD5A06CD8B110280FD0202812D030
:10157000302815D0012514E0D4F8A820D9F800109F
:1015800021F0E0611143C9F80010E8E7386840F441
:101590000030386004E00221201D01F031F80546DA
:1015A0006DB12E462088C0042BD5E06DB0F5005FEC
:1015B00020D00DDCA0B1B0F5805F0FD115E07A48E6
:1015C000A26C001F016821F0300111430160E9E7BE
:1015D000B0F5405F13D0B0F5804F10D001250FE07B
:1015E000386840F40030386009E00021201D01F027
:1015F00007F803E00098002101F092F8054685B154
:101600002E462088800429D5206EB0F5403F23D097
:1016100010DC08B3B0F5803F14D0B0F5003F0FD117
:1016200015E0E26DD8F8001021F4E0411143C8F84C
:101630000010E6E7B0F5802F0ED0B0F5A02F0BD04C
:1016400001250AE00121201D00F0DAFF03E00098E7
:10165000012101F065F805468DB12E462088400431
:101660002AD5D4F8AC00B0F1405F23D010DC08B329
:10167000B0F1805F14D0B0F1005F0FD115E0226EA1
:10168000D8F8001021F4E0211143C8F80010E5E774
:10169000B0F1804F0ED0B0F1A04F0BD001250AE081
:1016A0000121201D00F0ACFF03E00098012101F0B2
:1016B00037F805466DB12E46208800041FD5E06E30
:1016C000D8B1B0F1805F0ED0B0F1005F10D001252D
:1016D00014E0D4F8AC20D9F8001021F0E041114317
:1016E000C9F80010E8E7386840F40030386004E0DA
:1016F0000121201D00F084FF05466DB12E462068B3
:10170000C0011ED5606CD0B101280ED0022811D0C6
:10171000032814D0012513E0E26ED8F8001021F060
:1017200040511143C8F80010E9E7386840F4003030
:10173000386004E00221201D00F062FF054685B1FB
:101740002E462068DFF85CB04002ABF11C0B57D589
:101750001648016841F480710160FFF749FD824637
:101760000EE01148626C001F016821F00301114373
:101770000160E6E7FFF73CFDA0EB0A0064283DD8D6
:101780000A480068C005F5D57DBBDFF81CA0B4F899
:10179000B0200AF1200ADAF8001002F4407001F4D7
:1017A000407105E02C440258504402580048025849
:1017B000814211D0DAF80010DAF8002021F44071EB
:1017C00042F48032CAF80020DAF8002022F4803295
:1017D000CAF80020CAF80010D4F8B000B0F5807F35
:1017E00021D1FFF705FD019019E008E0FFF700FDAA
:1017F0000199411A41F28830814210D903252E46C1
:101800002078DFF844A4C0073DD0A06F182838D056
:1018100026DC80B3082829D0102825D12CE0DAF85E
:1018200000008007E2D5D4F8B010C1F301200328EE
:1018300058460DD0016821F47C510160B4F8B02005
:10184000DAF80010C2F30B021143CAF80010D7E710
:10185000FE4A036802EA111223F47C511143ECE7BB
:1018600020280ED028280CD001250BE00121201DB6
:1018700000F0C6FE04E004E00098012100F050FFF3
:1018800005465DB12E46207880071ED5606F06287C
:1018900019D2DFE800F0160C11161616A26FDAF84E
:1018A000001021F038011143CAF80010EBE70121C4
:1018B000201D00F0A5FE03E00098012100F030FF9C
:1018C000054675B100E001252E46207840071FD55A
:1018D000D4F89000062819D2DFE800F0160C111693
:1018E0001616626FDAF8001021F007011143CAF8EA
:1018F0000010EAE70121201D00F082FE03E00098BD
:10190000012100F00DFF05469DB100E001252E46A6
:10191000207880062BD5D4F88C00B0F1405F24D01D
:1019200011DC10B3B0F1805F15D0B0F1005F10D1C1
:1019300016E0D4F89020D9F8001021F007011143E7
:10194000C9F80010E4E7B0F1804F0ED0B0F1A04F1D
:101950000BD001250AE00021201D00F051FE03E01C
:101960000098022100F0DCFE05468DB12E4620785D
:1019700040062BD5D4F89800B0F5406F24D011DC88
:1019800010B3B0F5806F15D0B0F5006F10D116E030
:10199000D4F88C20DAF8001021F0E0411143CAF8A5
:1019A0000010E4E7B0F5805F0ED0B0F5A05F0BD07B
:1019B00001250AE00021201D00F022FE03E000982E
:1019C000022100F0ADFE05468DB12E4620780006BE
:1019D0002BD5D4F89C00B0F5C04F24D011DC10B347
:1019E000B0F5005F15D0B0F5804F10D116E0D4F8F7
:1019F0009820D9F8001021F4E0511143C9F80010E3
:101A0000E4E7B0F5004F0ED0B0F5204F0BD0012524
:101A10000AE00021201D00F0F3FD03E00098022100
:101A200000F07EFE05464DB12E46207800071ED5FB
:101A3000D4F88000B0F5805F0AD00FE0D4F89C2085
:101A4000D9F8001021F460411143C9F80010ECE707
:101A50000098022100F064FE00B10126D4F8802035
:101A6000DAF8001021F440511143CAF80010207830
:101A7000C00613D5D4F89400B0F5807F05D1009846
:101A8000022100F04DFE00B10126D4F89420D9F8CF
:101A9000001021F440711143C9F8001020680003C0
:101AA00016D5D4F8A00038B1B0F5803F09D0B0F514
:101AB000003F0BD001250AE00021201D00F0A0FD11
:101AC00003E00098022100F02BFE054685B12E466A
:101AD0002068400322D5D4F88400B0F5801F11D0CF
:101AE000B0F5001F13D0B0F5401F15D0012514E04C
:101AF000D4F8A020D9F8001021F440311143C9F8DE
:101B00000010E5E7386840F40030386004E00098E1
:101B1000012100F005FE054655B12E462068C003A0
:101B20001CD5E06C70B1B0F5803F10D0012514E0F9
:101B3000D4F88420DAF8001021F440111143CAF8D7
:101B40000010EBE7386840F40030386004E0022110
:101B5000201D00F055FD0546CDB12E4620688000C1
:101B600005D50098022100F0DBFD00B101262068B8
:101B700080031BD5E06FB8B1B0F5807F10D0B0F511
:101B8000007F11D0B0F5407F0ED001250DE02E482A
:101B9000E26C0838016821F4803111430160DDE70F
:101BA000386840F400303860F5B32E462068C00233
:101BB00007D5226FD8F8001021F000411143C8F872
:101BC00000102068C00008D5D4F8B420DBF800105D
:101BD00021F480411143CBF800102068800207D522
:101BE000A26ED8F8001021F080711143C8F80010DF
:101BF000206840000CD5DBF8001021F40041CBF840
:101C00000010DBF80010D4F8B8201143CBF8001016
:101C10002068002807DA0C48226D0838016821F096
:101C200040511143016000E014E02068000208D533
:101C3000D4F88820DAF8001021F440011143CAF8E2
:101C4000001086B1012003E054440258CFFFFF008A
:101C5000BDE8FC9FE26FDAF8001021F440711143F7
:101C6000CAF80010A2E70020EDE700002DE9F05FC0
:101C700004000F467ED0DFF83882D8F8000000F06C
:101C80000F00B8420CD2D8F8001021F00F013943F0
:101C9000C8F80010D8F8000000F00F00B84269D171
:101CA0002078844D40070AD52069296801F0700129
:101CB000884204D9296821F0700101432960207805
:101CC0007C4E361D00070AD56069316801F070014D
:101CD000884204D9316821F07001014331602078D5
:101CE000C0060AD5A069316801F4E061884204D9D0
:101CF000316821F4E061014331602078DFF8B4B14C
:101D000080060BF1080B0CD5E1695846DBF8002082
:101D100002F07002914204D9026822F070020A4374
:101D20000260207880070AD5E068296801F00F0179
:101D3000884204D9296821F00F01014329602078E5
:101D4000C0073ED05B49A2682868183920F470604B
:101D5000104328606068022818D0032819D0096849
:101D6000012819D0490700294ADADFF848A1AAF169
:101D7000080A00E044E0DAF8002022F007020243FB
:101D8000CAF80020FFF734FA814612E00968890397
:101D9000E9E709688901E6E7C905E4E7FFF728FAFA
:101DA000A0EB090141F28830814202D90320BDE84D
:101DB000F09F6168DAF8000000F03800B0EBC10F66
:101DC000ECD1207880070AD5E068296801F00F017E
:101DD000884204D2296821F00F0101432960D8F814
:101DE0000010404601F00F01B9420BD9016821F003
:101DF0000F0139430160006800F00F00B84201D0C4
:101E00000120D4E7207840070AD52069296801F02D
:101E10007001884204D2296821F0700101432960D1
:101E2000207800070AD56069316801F070018842A6
:101E300004D2316821F07001014331602078C0067E
:101E40000AD5A069316801F4E061884204D23168A2
:101E500021F4E06101433160207880060CD5E1690E
:101E60005846DBF8002002F07002914204D202686A
:101E700022F070020A43026000F026F80E492A6838
:101E80002B68C2F3032203F00F038A5CC95C02F0E3
:101E90001F0201F01F01D040084A20FA01F1116031
:101EA0000749086007480068BDE8F05FFFF7DCB944
:101EB0000020005218440258D02A00081C000024B8
:101EC0001800002410000024454970B545480968F1
:101ED000434B103B11F0380208D00111082A03D0FF
:101EE000102A0BD0182A0BD0084670BD1968890635
:101EF000FBD51968C1F3C101C84070BD3A4870BD37
:101F00003749374D18310C1D24350A680968266891
:101F10002D6802F0030406F00102C1F30511C5F3B8
:101F2000CC0515FB02F200EE102AB8EE400AE9B328
:101F30002F4ADFED2E0AB7EE001A6CB1DFED2D1A35
:101F4000012C01D0022C43D002EE101A1068F8EEDA
:101F5000422A81EEA22A1EE01C68A40611D51B6845
:101F600001EE901A1168C3F3C103F8EE612AD8405C
:101F700001EE900AC1F30800F8EE611A81EEA22A80
:101F80000BE001EE901ADFED1C2A00BFF8EE611A9B
:101F9000106882EEA12AC0F3080001EE900AF8EE64
:101FA000611A40EE201A31EE810A00E015E022EEBF
:101FB000000A1068C0F34620401C00EE900AF8EEBC
:101FC000600A80EE201ABCEEC10A10EE100A70BD45
:101FD00001EE901ADFED092AD8E7002070BD00005D
:101FE000104402580090D00340787D010000003971
:101FF000304402580024744A0024744C20BCBE4B68
:102000002DE9F05F04007CD0FF4F2078FE4D18379B
:10201000DFF8F493103DC00748D0D9F800003968C4
:1020200000F03800102815D0182803D101F0030063
:1020300002280FD06068B0F5803F12D010B1B0F523
:10204000A02F18D0286820F480302860286820F459
:10205000802009E02868800328D560680028D2D055
:1020600024E0286840F480302860606888B1FFF779
:10207000BFF8064609E0286840F480202860F0E7B1
:10208000FFF7B6F8801B64287ED828688003F7D550
:102090000CE0FFF7ADF8064605E000BFFFF7A8F833
:1020A000801B6428F0D828688003F7D4207841F298
:1020B0000308D54E0C3E800753D5D9F80000396887
:1020C00010F038000ED0182801D188070AD0E06837
:1020D000A8B3296821F0190101432960FFF788F8A6
:1020E00082461BE02868400702D5E06800288AD0B5
:1020F000FFF778F840451BD82069402812D0316896
:1021000000E0CCE021F47C3141EA0030306028E08E
:10211000FFF76EF8A0EB0A000228B5D82868400740
:10212000F6D5E5E7306820F47C3040F40030EDE788
:10213000207C316821F0FE4141EA0060E6E7FFE7DC
:10214000286820F001002860FFF752F8824605E079
:10215000FFF74EF8A0EB0A00022895D82868400740
:10216000F6D42078C0065FD5D9F80000DFF898B221
:10217000396800F03800ABF1040B082812D0182899
:1021800005D101F0030000E0EAE001280AD0E0698F
:102190000028286838D040F080002860FFF728F831
:1021A000824623E02868C00523D5E069802876D1DF
:1021B0001FE0206A202821D0316821F0F84141EA4F
:1021C0008060306030E000BF94F82010DBF8002021
:1021D00022F07C5242EA0161CBF8001024E000BFFB
:1021E000FFF706F8A0EB0A00022896D82868C00579
:1021F000F6D5FEF7F7FF4045E6D8DAE7306820F07D
:10220000F84040F08040DCE720F080002860FEF7D6
:10221000EFFF064605E000BFFEF7EAFF801B02283D
:102220009BD82868C005F7D42078000729D57648C0
:102230006169643000298046016811D041F00101D4
:102240000160FEF7D5FF064605E000BFFEF7D0FFB0
:10225000801B0228C9D8D8F800008007F6D510E006
:1022600021F001010160FEF7C3FF064605E000BF53
:10227000FEF7BEFF801B022872D8D8F80000800746
:10228000F6D42078800623D5A0690028286810D0CD
:1022900040F480502860FEF7ABFF064605E02CE1D5
:1022A000FEF7A6FF801B02285AD828688004F7D5BD
:1022B0000EE020F480502860FEF79AFF064604E006
:1022C000FEF796FF801B02284AD828688004F7D4BE
:1022D000207840074FD5DFF83481D8F8001041F45A
:1022E0008071C8F80010FEF783FF064605E000BFC6
:1022F000FEF77EFF801B642832D8D8F80000C005A6
:10230000F6D5414EA068603601280AD008B10528EC
:1023100013D0306820F001003060306820F00400F5
:1023200002E0306840F001003060A06841F2883A75
:1023300090B1FEF75DFF80460AE0306840F004008F
:102340003060EEE7FEF754FFA0EB0801514507D8D7
:1023500030688007F6D50EE0FEF74AFF804607E0BA
:1023600084E000BFFEF744FFA0EB080151457DD893
:1023700030688007F6D4606AF0B3DFF88C80D9F853
:10238000001008F12008C1F3C20103296FD0022810
:10239000286820F08070286003D0FEF729FF0446EB
:1023A00080E0FEF725FF064605E000BFFEF720FFB0
:1023B000801B022873D828688001F7D4E26A40F2B3
:1023C000F331386854F8283F884340EA0210184334
:1023D0003860217B4FF4FE0C22894FF0FE47208AA3
:1023E0004902267D521E401EA1F5007189B20CEAF9
:1023F0000040C2F3080200E081E01143761E014371
:10240000014807EA066203E01044025800480258F7
:102410001C3011433B4AC8F80010016821F001014B
:10242000016011684FF6F876236AB14341EAC301AF
:1024300011600168A26921F00C011143016001687B
:10244000E26921F0020111430160016841F4803129
:102450000160016841F400310160016841F48021AC
:102460000160016841F00101016001E017E01DE039
:10247000286840F080702860FEF7BAFE044604E049
:10248000FEF7B6FE001B022809D828688001F7D5A0
:1024900035E000BFFEF7ACFE001B022802D9032086
:1024A000BDE8F09F28688001F4D428E0396801284D
:1024B000D8F8000021D0A26A01F0030393421CD196
:1024C000E26AC1F305118A4217D1216BC0F30802F9
:1024D000491E8A4211D1616BC0F34622491E9142C6
:1024E0000BD1A16BC0F30642491E914205D1E16BAD
:1024F000C0F30660491E814201D00120D0E70020D0
:10250000CEE7000034440258401EB0F1807F10B581
:1025100001D3012010BD4FF0E02460610F2160174E
:1025200000F057FA0020A0610721216110BDFEE7ED
:10253000194800212DE9F041164F0122816009243C
:1025400007600825C1600A26017404234174817460
:10255000C0E90552C0E90764C0E90952C0E90D129B
:102560003C3080E80E00C0E90313C0E90513C161E7
:10257000C0E90812C0E90A1340E904643C38FEF7D8
:102580006BFB002803D0BDE8F041FDF78DBFBDE82F
:10259000F081000000A000404400002410B586B087
:1025A00014216846FDF71AFF1148016841F08001C7
:1025B0000160016801F080010591016841F00101AD
:1025C0000160006800220B4C022100F00100059020
:1025D0002046FEF701FE0021022000900122204645
:1025E000CDE9012103916946FEF7D6FC06B010BD86
:1025F000E044025800000258FEE7FEE77047000082
:102600002DE9F047454D044689464FF0000A2868F9
:10261000C04380070AD0414E283E306820F08060D9
:102620003060FEF7E5FD0746B04608E00120BDE852
:10263000F08700BFFEF7DCFDC01B022867D8D8F882
:1026400000000001F6D4206829684FF4FE0721F449
:102650007C313E0241EA00302860207AA389B4F838
:1026600004C040022D4D2D495B1E227CACF1010CB3
:102670001035091DA0F5007080B2521ECCF3080C75
:1026800007EA034340EA0C00184306EA02621043DB
:1026900028600868626920F0C000104308600A687A
:1026A000A06922F0200202430A60281D0A6822F075
:1026B00010020A6002684FF6F873E4699A4342EA2E
:1026C000C40202600868B9F1000F40F010020A600D
:1026D00011D00868B9F1010F11D040F40010086062
:1026E000D8F80000444640F08060C8F80000FEF7CB
:1026F0007FFD05460DE0086840F40020EFE740F458
:102700008010ECE7FEF774FD401B022801D903207E
:102710008DE720680001F5D5504688E72844025827
:102720002DE9F047454D044689464FF0000A2868D8
:10273000C04380070AD0414E283E306820F08050C8
:102740003060FEF755FD0746B04608E00120BDE8C1
:10275000F08700BFFEF74CFDC01B022867D8D8F8F1
:1027600000008000F6D4208829684FF4FE0721F08D
:102770007C713E0241EA00502860207AA389B4F8B7
:1027800004C040022D4D2D495B1E227CACF1010C92
:102790001835091DA0F5007080B2521ECCF3080C4C
:1027A00007EA034340EA0C00184306EA02621043BA
:1027B00028600868626920F44060104308600A6875
:1027C000A06922F4007202430A60281D0A6822F4FC
:1027D00080720A6002684FF6F873E4699A4342EA2D
:1027E000C40202600868B9F1000F40F480720A6008
:1027F00011D00868B9F1010F11D040F08070086065
:10280000D8F80000444640F08050C8F80000FEF7B9
:10281000EFFC05460DE0086840F48000EFE740F467
:102820000000ECE7FEF7E4FC401B022801D903207E
:102830008DE720688000F5D5504688E72844025887
:102840007047FEF7DBBC000070B59CB04C216846B9
:10285000FDF7C4FD202113A8FDF7C0FD0220FEF7FF
:1028600071FD204800242049026842F44042026081
:1028700002680A6842F001020A60096801F0010179
:102880001B9101688904FCD5022009900DF1280CE8
:1028900001210091C20301920523C0260C218CE87E
:1028A0004900CDE90D0108250F90CDE91054684687
:1028B0001294FFF7A5FB88B940201A903F2103012D
:1028C000CDE916500322CDE9180313AB13A883E812
:1028D00016000421FFF7CAF9002801D0FDF7E4FD36
:1028E0001CB070BD184802582C0400582E48F0B592
:1028F0002E4A016841F470010160106800F00F0079
:10290000072804D2106820F00F00C01D106028496D
:102910000020274C10340B68264D43F001030B6058
:1029200020600B682B400B60136803F00F03072B2C
:1029300004D9136823F00F03DB1D13601C4C1E4ADF
:1029400018341E4B261D371D2060194C1C4D283491
:102950003060261D3860371D23603B1D35601C1D0F
:102960003A60251D2E1D1860331D226028603260DC
:1029700018600A680E4B134C22F4802260330A6000
:10298000186020686FF30F00B0F1005F03D20E49AA
:102990000120C1F8080143F2D2000C49024B4A035E
:1029A000803B08601A60F0BD88ED00E00020005216
:1029B000004402587FEDF6EA8002010100020202A3
:1029C0000000FF010010005C008000510040005238
:1029D000FEE7090700284FEA116104DB00F1E0205F
:1029E00080F80014704700F00F0000F1E02080F83C
:1029F000141D7047FEF70AFCFFF726FFFFF7CEFD18
:102A0000FFF796FDFDF75AFD134C0025134EC12725
:102A1000DFF84CA04FF400284FF002090F4AC4E938
:102A20000075C4E902582561921C6561A561E561E4
:102A300009490C482562FDF7F3FE18B103207070B8
:102A4000FDF732FD6420FDF795FE02215046FEF7AA
:102A5000BBFB86F80090E1E7200000240000002482
:102A600000000258440000244FF04070E1EE100ACC
:102A7000704700000001020304050607080C10144B
:102A8000182030400000000000000000000000009E
:102A90000000000000000000010000000200000033
:102AA000030000000400000000000000050000001A
:102AB0000000000000000000000000000600000010
:102AC00000000000000000000000000007000000FF
:102AD00000000000010203040102030406070809C4
:102AE000002B00080000002420000000D402000891
:102AF000202B00082000002428070000F002000816
:102B000000000000000000000000000001000000C4
:102B100010000000000000000090D0030090D003DF
:040000050800029954
:00000001FF
