:020000040800F2
:10000000E0040020A10100084B1700082F1600088B
:1000100049170008AD02000833190008000000006D
:100020000000000000000000000000004F17000862
:100030003D030008000000004D170008511700089C
:10004000BB010008BB010008BB010008BB010008A0
:10005000BB010008BB010008BB010008BB01000890
:10006000BB010008BB010008BB010008BB01000880
:10007000BB010008BB010008BB010008BB01000870
:10008000BB010008BB010008BB010008BB01000860
:10009000B1020008BB010008BB010008BB01000859
:1000A000BB010008BB010008BB010008BB01000840
:1000B000F5170008BB010008BB010008BB010008E0
:1000C000BB010008BB010008BB010008BB01000820
:1000D000BB010008BB010008BB010008BB01000810
:1000E000BB010008BB010008BB010008BB01000800
:1000F000BB010008BB010008BB010008BB010008F0
:10010000BB010008BB010008BB010008BB010008DF
:10011000BB010008BB010008BB010008BB010008CF
:10012000BB010008BB010008BB010008BB010008BF
:10013000BB010008BB010008BB010008BB010008AF
:10014000BB010008BB010008BB010008BB0100089F
:10015000BB010008BB010008BB010008BB0100088F
:10016000BB010008BB010008BB010008BB0100087F
:10017000BB010008BB010008BB0100080000000033
:10018000BB010008BB010008DFF810D000F07CF8CC
:100190000048004775190008AFF30080E004002014
:1001A0000648804706480047FEE7FEE7FEE7FEE711
:1001B000FEE7FEE7FEE7FEE7FEE7FEE7D9170008E9
:1001C000890100082DE9F05F0546002092469B4614
:1001D00088460646814640241BE02846414647465D
:1001E000224600F041F853465A46C01A914110D3B6
:1001F00011461846224600F028F82D1A67EB010830
:100200004F4622460120002100F01FF817EB00099D
:100210004E41201EA4F10104DFDC484631462A4647
:100220004346BDE8F09FD2B201E000F8012B491E21
:10023000FBD270470022F6E710B513460A46044683
:100240001946FFF7F0FF204610BD202A04DB203AB4
:1002500000FA02F1002070479140C2F1200320FA19
:1002600003F3194390407047202A04DB203A21FA17
:1002700002F00021704721FA02F3D040C2F12002BF
:100280009140084319467047064C074D06E0E06868
:1002900040F0010394E8070098471034AC42F6D3CD
:1002A000FFF776FFAC190008CC190008FEE7000044
:1002B000014800F052B900006C00002010B50D4854
:1002C00000F04AFB0C480122022301880B48C0E9D8
:1002D00000120021C1600361816001750648AC21F4
:1002E000801D01704270BDE810404021044800F0BC
:1002F00065BC00006C0000200000002038000020D9
:100300000000024000B58BB0002001210190029056
:1003100008910590CDE906010490009003900E200D
:1003200009906946044800F01DF80221024800F0D7
:1003300007F80BB000BD00006C000020704770474C
:1003400090F82020012A07D0022A05D0416A41F402
:100350008021416201207047006842690A4342617E
:100360000020704710B590F82020012A07D0022AFB
:1003700005D0416A41F480214162012010BD3B4813
:10038000D0F8002242F00102C0F80022D0F800228A
:1003900022F47C52C0F80022D0F800224B6A42EAD4
:1003A0000322C0F800220A7D02F01F0301229A40B6
:1003B000D0F81C329343C0F81C32CB69B3B9D0F8E3
:1003C0000C329343C0F80C328C894B6864F31F43A2
:1003D0004C6900EBC404C4F840320C890B6864F328
:1003E0001F434C6900EBC404C4F84432CB69012BB1
:1003F00016D1D0F80C321343C0F80C320C884B687D
:1004000064F31F434C6900EBC404C4F840320C8908
:10041000CB6864F31F434C6900EBC404C4F8443256
:100420008B69002BD0F804320ED01343C0F804328D
:100430000B69002BD0F8143208D01343C0F81432E3
:10044000096A012904D008E09343EFE79343F5E7F5
:10045000D0F81C121143C0F81C12D0F8001221F081
:100460000101C0F80012002010BD0000006400402F
:10047000704730B590F82040012C05D0022C03D0F5
:10048000416A41F480215DE00468002955D0246967
:10049000A40754D04FF4D874056804EB01142D5907
:1004A00015F00405956005682D594ED0ED0855608E
:1004B00005682C5904F00204D4604FF4DA7405681E
:1004C00004EB01142D5905F00F05156105682D5930
:1004D000C5F30725956105682C59240C54614FF428
:1004E000DC72046802EB0112A4581C700468A45862
:1004F000240A5C700468A458240C9C700468A258F8
:10050000120EDA704FF4DE72046802EB0112A45886
:100510001C710468A458240A5C710468A458240C53
:100520009C710468A258120EDA71006881B10169E9
:1005300041F020010161002030BDE468A8E7416A74
:1005400041F400114162012030BD6D0D1560AFE72F
:10055000C16841F02001C160EDE72DE9F05F05467B
:10056000006800244669D0F804908768D0F80CB081
:10057000D0F810A0D0F81880F10748D0F90714D0AF
:1005800001218160B80703D5284600F012FA0CE07B
:10059000780702D54FF4006407E0380702D54FF41E
:1005A000805402E0284600F003FAF80516D52968C1
:1005B0004FF480708860B80503D5284600F0FBF939
:1005C0000CE0780502D544F4005407E0380502D564
:1005D00044F4804402E0284600F0ECF9F80316D514
:1005E00029684FF480308860B80303D5284600F0AE
:1005F000E4F90CE0780302D544F4004407E0380342
:1006000002D544F4803402E0284600F0D5F93007E2
:1006100007D55FEACB6004D52968102044F4007444
:10062000C86070074FF0080707D55FEA0B7004D564
:100630002868C760284600F057F9B00706D5286833
:10064000C068800702D0284600F050F9700607D530
:100650005FEACA6004D52968102044F48064086108
:10066000B00607D55FEA0A7004D5286807612846F6
:1006700000F06EF9F00606D528680069800702D000
:10068000284600F066F9B00308D55FEAC96005D5D1
:10069000296810204860284600F05CF9F00307D56F
:1006A0005FEA097004D528684760284600F086F99B
:1006B000300446D55FEA497040D5F00504D55FEABD
:1006C000C87001D044F00104B00504D55FEA887019
:1006D00001D544F00204700504D55FEA487001D5E5
:1006E00044F00404300529D518F0700F26D008F026
:1006F0007000402815D006DC102809D020280AD028
:10070000302816D10AE050280ED0602811D10EE012
:1007100044F008040DE044F010040AE044F0200422
:1007200007E044F0400404E044F0800401E044F4B5
:1007300080742868816921F0700181612968042032
:100740004860002C05D0686A204368622846FFF79D
:100750008FFEBDE8F09F70B5040003D094F8200030
:1007600010B104E0012070BD204600F081F820683F
:10077000016821F00201016000F026FA0546052615
:1007800004E000F021FA401B0A2811D820684068D4
:100790008007F6D42068016841F00101016000F093
:1007A00013FA05460BE000F00FFA401B0A2806D9A1
:1007B000606A40F40030606284F82060D2E720680C
:1007C0004068C007EFD0207E0128206801683DD036
:1007D00021F080010160607E01282068016838D026
:1007E00021F040010160A07E01282068016833D01B
:1007F00021F020010160E07E0128206801682ED0F0
:1008000041F010010160207F01282068016829D093
:1008100021F008010160607F01282068016824D070
:1008200021F004010160D4E902010843D4E9041273
:10083000114308436168491E08432168C8610020CC
:100840006062012084F82000002070BD41F080012A
:10085000C0E741F04001C5E741F02001CAE721F0BF
:100860001001CFE741F00801D4E741F00401D9E7D6
:1008700010B586B0044614216846FFF7DBFC174923
:100880002068884227D116480021026842F0007291
:100890000260006800F0007005901148103802688E
:1008A00042F0080202600068022200F00800059091
:1008B0000320CDE90210CDE9000209200490694629
:1008C000084800F07DF800221146142000F0EAF9F3
:1008D000142000F0D9F906B010BD000000640040FB
:1008E00040380240000C02407047000070B5154BC4
:1008F000154A0021FFF7BDFD1348124A114B00882D
:100900000E3A80B25080C02807D1002102F11604AF
:100910005D5C6554491C0829FADBF02807D1094CB5
:10092000002110345D5C6554491C0829FADBC0289D
:1009300002D0F02800D09080BDE87040022103482A
:1009400000F034B90E0000205000002000000240EA
:10095000704770477047000070B5044690F820005B
:10096000012804D0606A40F40020606218E0022090
:1009700084F820002068016821F00101016000F086
:1009800023F905460EE000BF00F01EF9401B0A28BF
:1009900008D9606A40F400306062052084F82000C5
:1009A000012070BD20684068C007EDD1606270BD55
:1009B0007047704770477047704770477047000036
:1009C0002DE9F84FDFF8B8A1002201250AF1040B48
:1009D00003264FF00F090BF1040E00BF0B6805FA58
:1009E00002F42340A3426FD10F7907F00307012FD0
:1009F00001D0022F16D187684FEA420806FA08FC98
:100A000027EA0C07D1F80CC00CFA08FC4CEA070CDA
:100A1000C0F808C04768A7430C79C4F30014944099
:100A20003C4344600C79E443A4070AD0C4684FEA0D
:100A3000420C06FA0CF7BC438F6807FA0CF7274301
:100A4000C7600C7904F00304022C12D1D40800EB27
:100A5000840CDCF820405707FF0E09FA07F824EA57
:100A60000804D1F8108008FA07F848EA0408CCF81E
:100A7000208004684FEA420C06FA0CF7BC430F7959
:100A800007F0030707FA0CF7274307604C68E400F8
:100A900070D53C4C276847F480472760246822F0D3
:100AA000030704F480440094374C07EB040CDCF893
:100AB000084897074FEA177809FA08F7BC43334FFD
:100AC000B84202D1002724E054E0314FB84201D1AE
:100AD00001271EE02F4FB84201D1022719E02E4F07
:100AE000B84201D1032714E02C4FB84201D10427AA
:100AF0000FE02B4FB84201D105270AE0294FB84239
:100B000001D1062705E0284FB84201D1072700E0B0
:100B1000082707FA08F72743CCF80878DAF80040E6
:100B20005746D1F804C09C435FEACC3C00D51C4337
:100B30003C60DBF800405F46D1F804C09C435FEAAC
:100B40008C3C00D51C433C60DEF800407746D1F871
:100B500004C09C435FEACC2C00D51C433C60084F8A
:100B60000C373C68D1F804C09C435FEA8C2C00D55C
:100B70001C433C60521C102AFFF430AFBDE8F88FD4
:100B8000003C014044380240003001400000024077
:100B90000004024000080240000C02400010024025
:100BA0000014024000180240001C0240426921EA81
:100BB00002030A4043EA0241816170470AB1816140
:100BC00070470904FBE70000014880687047000097
:100BD0002800002002488168027811448160704733
:100BE000280000200B4810B5016841F40071016035
:100BF000016841F480610160016841F48071016025
:100C0000032000F06FF8002000F006F800F024F850
:100C1000002010BD003C024070B50D4D04464FF45D
:100C20007A712878B1FBF0F00A490968B1FBF0F05D
:100C300000F0EAFA48B9102C07D200222146501ED3
:100C400000F030F800206C6070BD012070BD000025
:100C500028000020340000200A4808B5016841F44B
:100C600080410160006800F4804000900548001F4A
:100C7000016841F080510160006800F080500090F0
:100C800008BD000044380240002809DB00F01F02C4
:100C9000012191404009800000F1E020C0F80011DE
:100CA00070470000F0B40E4B1B680C46C3F30223E0
:100CB000C3F10705042D00D90425191D072901D208
:100CC000002300E0DB1E012606FA05F1491E214043
:100CD00099409E40761E16403143F0BC00F02ABE7B
:100CE0000CED00E0064900F0070208684FF6FF032C
:100CF000184040EA0220034A104308607047000091
:100D00000CED00E00000FA052DE9F0470E46050065
:100D100065D0DFF81481D8F80000F7B200F00700C2
:100D2000B04207D288F80070D8F8000000F0070041
:100D3000B04254D128683D4C810712D5400703D5F5
:100D4000206840F4E05020602878000703D5206830
:100D500040F4604020602068A96820F0F00008435B
:100D600020602878C0072DD03049686808390128EC
:100D700012D0022813D0032811D00968890700294E
:100D80002DDA216821F0030101432160FFF71CFFE8
:100D9000814641F2883A0EE009688903EFE7096865
:100DA0008901ECE7FFF710FFA0EB0901514502D9DB
:100DB0000320BDE8F0872068696800F00C00B0EB04
:100DC000810FEFD1D8F80010404601F00701B14281
:100DD00007D90770006800F00700B04201D0012079
:100DE000E7E72878400705D52068E96820F4E05057
:100DF000084320602878000706D52068296920F478
:100E0000604040EAC100206000F018F82168084AFC
:100E1000C1F30311515CC8400649086006480068E8
:100E2000FFF7FAFE0020C4E7003C02400838024009
:100E30009C190008340000202C000020154810B533
:100E4000006810F00C02144813D04110042A0FD08F
:100E5000082A0ED10F4C241F2268236802F03F029B
:100E60005B0207D52068C0F38810A0FB010106E0F3
:100E7000084610BD2168C1F38811A1FB00010023C1
:100E8000FFF7A0F92168C1F30141491C4900B0FBFB
:100E9000F1F010BD083802400024F4002DE9F84FAD
:100EA00004006ED02078DFF84C93C007A9F1040548
:100EB0004AD009F104000168C1F38101012908D079
:100EC0000068C0F3810002280AD1D9F8000040026E
:100ED00006D52868800337D560680028E1D033E064
:100EE0006068B0F5803F10D0B0F5A02F286810D012
:100EF00020F480302860286820F480202860606812
:100F0000A8B1FFF761FE06460DE0286840F4803086
:100F1000F4E740F480202860F7E700BFFFF754FEB5
:100F2000801B642873D828688003F7D50CE0FFF78E
:100F30004BFE064605E000BFFFF746FE801B642817
:100F4000F0D828688003F7D42078DFF8AC828007D7
:100F50004FF0000A3ED5A748001D016811F00C0FA4
:100F600008D00068C0F3810002280BD1D9F8000036
:100F7000400207D42868800716D5E068012800D110
:100F800012E033E1E068B8B10120C8F80000FFF7D3
:100F90001BFE064605E000BFFFF716FE801B022879
:100FA000C0D828688007F7D52868216920F0F800A4
:100FB00040EAC10028600DE0C8F800A0FFF704FE79
:100FC000064604E0FFF700FE801B02281FD82868B1
:100FD0008007F7D42078000722D5864F87486169BB
:100FE000703771B101210160FFF7EEFD064604E0A4
:100FF000FFF7EAFD801B022809D838688007F7D57B
:101000000EE0C0F800A0FFF7DFFD064605E082E035
:10101000FFF7DAFD801B02287DD838688007F7D4F7
:101020002078400768D5DFF8CCB100270BF13C0BE6
:10103000DBF80000C0000BD4DBF8001041F0805159
:10104000CBF80010DBF80000012700F08050009082
:101050006B4E3068C00510D4306840F4807030604A
:10106000FFF7B2FD009005E0FFF7AEFD0099401AD2
:10107000022850D83068C005F6D55E4EA0686C36A0
:1010800001280FD00528306810D020F00100306012
:10109000306820F004003060A068B8B1FFF794FD1C
:1010A00000900FE0306840F00100F4E740F00400E9
:1010B0003060F7E7FFF788FD0099411A41F2883068
:1010C000814266D830688007F4D50EE0FFF77CFDDA
:1010D000009007E0FFF778FD0099411A41F288304F
:1010E000814256D830688007F4D42FB1DBF8001065
:1010F00021F08051CBF80010A069C8B33D49091D0B
:101100000968C1F3810102294AD00228504607D05C
:10111000C8F8600000E03CE0FFF756FD04463BE005
:101120004746C8F86000FFF74FFD064605E000BFE0
:10113000FFF74AFD801B02282BD828688001F7D4CE
:10114000D4E907010843A16A2E4A490802EB01418C
:10115000626A41EA8211084394F82C1040EA016166
:10116000C9F8001001203866FFF72EFD044606E09E
:101170003EE000BFFFF728FD001B022809D82868C1
:101180008001F7D534E000BFFFF71EFD001B0228E9
:1011900002D90320BDE8F88F28688001F4D427E045
:1011A0000128F7D0D9F80000E26900F480019142EB
:1011B0001CD1226A00F03F01914217D147F6C0715D
:1011C000626A0140B1EB821F10D1A26A4FF0FF3377
:1011D00000F4403103EB5202B1EB024F06D194F818
:1011E0002C1000F07060B0EB016F01D00120D1E74E
:1011F0000020CFE70438024000004742800E4742FB
:10120000007000400000FFFF10B5401EB0F1807F6D
:1012100001D3012010BD4FF0E02460610F21601761
:1012200000F088FB0020A06107202061002010BD95
:101230007047704770B590F83C20012A32D00124E5
:1012400080F83C40022280F83D2003685A689D687F
:1012500022F070060A6832435A60134B02689A42C1
:1012600014D0B2F1804F11D0104B9A420ED0104BD7
:101270009A420BD00F4B9A4208D00F4B9A4205D09E
:101280000E4B9A4202D00E4B9A4204D1496825F087
:1012900080031943916080F83D40002180F83C10A4
:1012A000084670BD022070BD0000014000040040EF
:1012B00000080040000C00400004014000400140D4
:1012C0000018004010B5040003D094F83D0010B1A0
:1012D00007E0012010BD002084F83C00204600F00B
:1012E0001FF8022084F83D00211D206800F088FAD4
:1012F000012084F8460084F83E0084F83F0084F81A
:10130000400084F8410084F8420084F8430084F8E7
:10131000440084F8450084F83D00002010BD000022
:1013200008B50068B0F1804F12D10A48016841F059
:10133000010101600068002200F0010000901146E8
:101340001C20FFF7AFFCBDE808401C20FFF79CBC49
:1013500008BD00004038024090F83D10012901D03E
:1013600001207047022180F83D100168CA6842F0F0
:101370000102CA6000681149884214D0B0F1804F60
:1013800011D00F4988420ED00E4988420BD00E4929
:10139000884208D00D49884205D00D49884202D0C4
:1013A0000C49884204D1816801F00701062903D065
:1013B000016841F001010160002070470000014018
:1013C0000004004000080040000C00400004014000
:1013D000004001400018004070B5044690F83C0001
:1013E000012817D0012584F83C50022084F83D00E4
:1013F0002068826822F0770222F47F4282600868C7
:10140000502830D00DDC20284DD005DC98B31028B2
:101410003BD148E0022070BD302844D0402834D170
:1014200039E0602828D0702806D0B0F5805F2CD035
:10143000B0F5005F29D10AE0CB68D1E9012120682D
:1014400000F042FA2068816841F0770109E0CB683A
:10145000D1E90121206800F037FA2068816841F461
:101460008041816011E0CA684968206800F03EFA56
:101470005021206807E016E0CA684968206800F03B
:1014800046FA6021206800F029FA84F83D500020D7
:1014900084F83C0070BDCA684968206800F026FAEC
:1014A00040212068EFE7226801461046EBE77047CD
:1014B00070B50446006801694FF00005C94389070B
:1014C00015D4C168C943890711D4E91E01610120FF
:1014D0002077206880698007204602D0FFF7E7FF69
:1014E00004E000F098F8204600F096F82577206890
:1014F0000169C943490717D4C168C943490713D4CF
:101500006FF004010161022020772068806910F4E7
:10151000407F204602D0FFF7CAFF04E000F07BF8CE
:10152000204600F079F8257720680169C94309074A
:1015300016D4C168C943090712D46FF008010161CC
:10154000042020772068C0698007204602D0FFF77A
:10155000AEFF04E000F05FF8204600F05DF825776C
:1015600020680169C943C90617D4C168C943C906BF
:1015700013D46FF010010161082020772068C06942
:1015800010F4407F204602D0FFF791FF04E000F006
:1015900042F8204600F040F8257720680169C943E9
:1015A000C90708D1C168C943C90704D1891E0161AF
:1015B000204600F033F820680169C943090609D4C0
:1015C000C168C943090605D46FF080010161204656
:1015D000FFF72EFE20680169C943490609D4C16896
:1015E000C943490605D46FF040010161204600F06F
:1015F0001DF820680169C94389060BD4C168C94335
:10160000890607D46FF0200101612046BDE87040D3
:10161000FFF70FBE70BD7047704700000122022126
:101620000148FFF7CBBA0000000002407047FEE718
:101630000F4810B50D4901600721416000214FF4AA
:1016400080228160C0E903124FF4A002426101765A
:1016500041768176C17601774177FFF77CF80028E3
:1016600003D0BDE81040FEF76ABE10BD0064004024
:101670006C00002030B587B014216846FEF7DAFD13
:1016800015480024016841F080010160016801F003
:1016900080010591016841F001010160016801F0DC
:1016A00001010591016841F00801016000680B4DDE
:1016B00000F008000590002262212846FFF77EFA1C
:1016C000622000900120CDE9010469462846039478
:1016D000FFF776F907B030BD303802400000024015
:1016E00010B586B000241748009401940294039426
:1016F00004944FF08041059401604AF21041C0E922
:1017000001144FF47A71C0E903148461FFF7DAFD24
:1017100008B1FEF714FE4FF4805000906946094866
:10172000FFF75AFE08B1FEF70AFE2020CDE90404B7
:1017300004A90448FFF77EFD002801D0FEF7FFFD55
:1017400006B010BD94000020FEE770477047704758
:10175000FFF740BA30B593B030216846FEF76AFD16
:1017600014210CA8FEF766FD19480025016841F018
:1017700080510160006800F08050119015480168A8
:1017800041F4804101600068022400F4804011901F
:1017900001200090000401908001CDE9064008AAD4
:1017A0000420A82182E813000B906846FFF776FB1F
:1017B0000CA90F2081E831004FF4A0500F90E002F7
:1017C000109005210CA8FFF79FFA13B030BD000060
:1017D00040380240007000400548016841F4700143
:1017E000016003494FF000608039086070470000D5
:1017F00088ED00E00148FFF75BBE00009400002088
:10180000F0B50268254C264D264E274F274B4FF04A
:10181000804CA04209D0604507D0A84205D0B04214
:1018200003D0B84201D0984204D122F0700E4A6829
:1018300042EA0E02A0421BD0604519D0A84217D040
:10184000B04215D0B84213D0984211D0184DA842DA
:101850000ED0184DA8420BD0174DA84208D0174DF6
:10186000A84205D0164DA84202D0164DA84203D179
:1018700022F44075CA682A434D6922F080022A4347
:1018800002608A68C2620A688262A04201D09842FD
:1018900001D10969016301214161F0BD00000140EE
:1018A0000004004000080040000C0040000401401B
:1018B0000040014000440140004801400018004041
:1018C000001C00400020004010B5846842EA03225A
:1018D00024F47F440A432243826010BD826822F0D0
:1018E00070020A4342F007018160704710B5036A35
:1018F000046A24F001040462846924F0F00444EAD8
:10190000021423F00A020A438461026210BD10B57A
:10191000036A23F0100303628369046A23F47043AB
:1019200043EA023224F0A00343EA0111826101621A
:1019300010BDFEE70907090E002804DB00F1E020D6
:1019400080F80014704700F00F0000F1E02080F8EC
:10195000141D704702E008C8121F08C1002AFAD1FE
:1019600070477047002001E001C1121F002AFBD11F
:1019700070470000FFF736F9FFF7ECFEFFF77AFE3D
:10198000FFF756FEFFF7ACFEFEF7BCFCFEF796FC39
:101990000148FFF7E1FCFEE7940000200000000092
:1019A000000000000102030406070809CC19000822
:1019B000000000203800000054190008041A000834
:1019C00038000020A804000064190008A0000000EE
:1019D0000000000000000000000000000000000007
:1019E00000000000000000000000000000000000F7
:1019F00000000000010000001000000000000000D6
:041A00000024F400CA
:040000050800018965
:00000001FF
