:020000040800F2
:1000000020050020A1010008E715000823130008BF
:10001000E5150008AD0200083719000800000000CF
:10002000000000000000000000000000EB150008C8
:10003000AF02000800000000E9150008ED150008F7
:10004000BB010008BB010008BB010008BB010008A0
:10005000BB010008BB010008BB010008BB01000890
:10006000BB010008BB010008BB010008BB01000880
:10007000BB010008BB010008BB010008BB01000870
:10008000BB010008BB010008BB010008BB01000860
:10009000BB010008BB010008BB010008BB01000850
:1000A000BB010008BB010008BB010008BB01000840
:1000B00099160008A5160008B1160008BB01000833
:1000C000BB010008BB010008BB010008BB01000820
:1000D000BB010008BB010008BB010008BB01000810
:1000E000BB010008BB010008BB010008BB01000800
:1000F000BB010008BB010008BB010008BB010008F0
:10010000BB010008BB010008BB010008BB010008DF
:10011000BB010008BB010008BB010008BB010008CF
:10012000BB010008BB010008BB010008BB010008BF
:10013000BB010008BB010008BB010008BB010008AF
:10014000BB010008BB010008BB010008BB0100089F
:10015000BB010008BB010008BB010008BB0100088F
:10016000BB010008BB010008BB010008BB0100087F
:10017000BB010008BB010008BB0100080000000033
:10018000BB010008BB010008DFF810D000F07CF8CC
:100190000048004779190008AFF3008020050020CF
:1001A0000648804706480047FEE7FEE7FEE7FEE711
:1001B000FEE7FEE7FEE7FEE7FEE7FEE7891600083A
:1001C000890100082DE9F05F0546002092469B4614
:1001D00088460646814640241BE02846414647465D
:1001E000224600F041F853465A46C01A914110D3B6
:1001F00011461846224600F028F82D1A67EB010830
:100200004F4622460120002100F01FF817EB00099D
:100210004E41201EA4F10104DFDC484631462A4647
:100220004346BDE8F09FD2B201E000F8012B491E21
:10023000FBD270470022F6E710B513460A46044683
:100240001946FFF7F0FF204610BD202A04DB203AB4
:1002500000FA02F1002070479140C2F1200320FA19
:1002600003F3194390407047202A04DB203A21FA17
:1002700002F00021704721FA02F3D040C2F12002BF
:100280009140084319467047064C074D06E0E06868
:1002900040F0010394E8070098471034AC42F6D3CD
:1002A000FFF776FF181A0008381A0008FEE77047B3
:1002B00072B6FEE72DE9F84FDFF8B8A1002201255C
:1002C0000AF1040B03264FF00F090BF1040E00BFD7
:1002D0000B6805FA02F42340A3426FD10F7907F0AF
:1002E0000307012F01D0022F16D187684FEA420879
:1002F00006FA08FC27EA0C07D1F80CC00CFA08FC37
:100300004CEA070CC0F808C04768A7430C79C4F34F
:10031000001494403C4344600C79E443A4070AD0A1
:10032000C4684FEA420C06FA0CF7BC438F6807FA20
:100330000CF72743C7600C7904F00304022C12D198
:10034000D40800EB840CDCF820405707FF0E09FAB4
:1003500007F824EA0804D1F8108008FA07F848EAF8
:100360000408CCF8208004684FEA420C06FA0CF727
:10037000BC430F7907F0030707FA0CF72743076020
:100380004C68E40070D53C4C276847F480472760F0
:10039000246822F0030704F480440094374C07EBF0
:1003A000040CDCF8084897074FEA177809FA08F7B1
:1003B000BC43334FB84202D1002724E054E0314F10
:1003C000B84201D101271EE02F4FB84201D10227C8
:1003D00019E02E4FB84201D1032714E02C4FB84248
:1003E00001D104270FE02B4FB84201D105270AE0C5
:1003F000294FB84201D1062705E0284FB84201D164
:10040000072700E0082707FA08F72743CCF8087801
:10041000DAF800405746D1F804C09C435FEACC3C70
:1004200000D51C433C60DBF800405F46D1F804C0B7
:100430009C435FEA8C3C00D51C433C60DEF80040E6
:100440007746D1F804C09C435FEACC2C00D51C430E
:100450003C60084F0C373C68D1F804C09C435FEA0D
:100460008C2C00D51C433C60521C102AFFF430AF8A
:10047000BDE8F88F003C01404438024000300140A4
:10048000000002400004024000080240000C02404C
:10049000001002400014024000180240001C0240FC
:1004A00001488068704700003800002002488168D9
:1004B0000278114481607047380000200B4810B565
:1004C000016841F400710160016841F480610160DC
:1004D000016841F480710160032000F06FF8002092
:1004E00000F006F800F024F8002010BD003C0240A7
:1004F00070B50D4D04464FF47A712878B1FBF0F0D9
:100500000A490968B1FBF0F000F0FCFA48B9102C78
:1005100007D200222146501E00F030F800206C6007
:1005200070BD012070BD0000380000204400002094
:100530000A4808B5016841F480410160006800F490
:10054000804000900548001F016841F08051016023
:10055000006800F08050009008BD00004438024060
:10056000002809DB00F01F020121914040098000B2
:1005700000F1E020C0F8001170470000F0B40E4B0D
:100580001B680C46C3F30223C3F10705042D00D9F1
:100590000425191D072901D2002300E0DB1E0126D6
:1005A00006FA05F1491E214099409E40761E1640EC
:1005B0003143F0BC01F0C0B90CED00E0064900F099
:1005C000070208684FF6FF03184040EA0220034A7A
:1005D00010430860704700000CED00E00000FA05D1
:1005E0002DE9F0470E46050065D0DFF81481D8F8F4
:1005F0000000F7B200F00700B04207D288F80070A0
:10060000D8F8000000F00700B04254D128683D4CF3
:10061000810712D5400703D5206840F4E0502060E0
:100620002878000703D5206840F4604020602068E7
:10063000A96820F0F000084320602878C0072DD07A
:10064000304968680839012812D0022813D00328DD
:1006500011D00968890700292DDA216821F00301EA
:1006600001432160FFF71CFF814641F2883A0EE00A
:1006700009688903EFE709688901ECE7FFF710FFD4
:10068000A0EB0901514502D90320BDE8F08720689D
:10069000696800F00C00B0EB810FEFD1D8F80010C2
:1006A000404601F00701B14207D90770006800F029
:1006B0000700B04201D00120E7E72878400705D5C0
:1006C0002068E96820F4E05008432060287800079B
:1006D00006D52068296920F4604040EAC100206006
:1006E00000F028F82168084AC1F30311515CC840A2
:1006F0000649086006480068FFF7FAFE0020C4E7D4
:10070000003C024008380240001A00084400002063
:100710003C0000200448054900680968044AC1F308
:100720008221515CC84070474400002008380240D4
:10073000101A0008154810B5006810F00C02144893
:1007400013D01449042A0FD0082A0ED10F4C241FAD
:100750002268236802F03F025B0207D52068C0F3DD
:100760008810A0FB010106E0084610BD2168C1F316
:100770008811A1FB00010023FFF724FD2168C1F3CC
:100780000141491C4900B0FBF1F010BD083802409E
:100790000024F40040787D012DE9F84F04006ED06C
:1007A0002078DFF84C93C007A9F104054AD009F17D
:1007B00004000168C1F38101012908D00068C0F379
:1007C000810002280AD1D9F80000400206D5286825
:1007D000800337D560680028E1D033E06068B0F569
:1007E000803F10D0B0F5A02F286810D020F48030C2
:1007F0002860286820F4802028606068A8B1FFF78E
:100800004FFE06460DE0286840F48030F4E740F4DF
:1008100080202860F7E700BFFFF742FE801B6428B6
:1008200073D828688003F7D50CE0FFF739FE064639
:1008300005E000BFFFF734FE801B6428F0D828686D
:100840008003F7D42078DFF8AC8280074FF0000AED
:100850003ED5A748001D016811F00C0F08D00068B4
:10086000C0F3810002280BD1D9F80000400207D460
:100870002868800716D5E068012800D112E033E12E
:10088000E068B8B10120C8F80000FFF709FE06468D
:1008900005E000BFFFF704FE801B0228C0D82868CF
:1008A0008007F7D52868216920F0F80040EAC100E8
:1008B00028600DE0C8F800A0FFF7F2FD064604E04E
:1008C000FFF7EEFD801B02281FD828688007F7D4A9
:1008D0002078000722D5864F87486169703771B14B
:1008E00001210160FFF7DCFD064604E0FFF7D8FDBB
:1008F000801B022809D838688007F7D50EE0C0F8B9
:1009000000A0FFF7CDFD064605E082E0FFF7C8FD39
:10091000801B02287DD838688007F7D420784007EC
:1009200068D5DFF8CCB100270BF13C0BDBF80000F9
:10093000C0000BD4DBF8001041F08051CBF8001060
:10094000DBF80000012700F0805000906B4E30680B
:10095000C00510D4306840F480703060FFF7A0FD0F
:10096000009005E0FFF79CFD0099401A022850D83E
:100970003068C005F6D55E4EA0686C3601280FD0F1
:100980000528306810D020F001003060306820F079
:1009900004003060A068B8B1FFF782FD00900FE05E
:1009A000306840F00100F4E740F004003060F7E701
:1009B000FFF776FD0099411A41F28830814266D8EE
:1009C00030688007F4D50EE0FFF76AFD009007E07D
:1009D000FFF766FD0099411A41F28830814256D8EE
:1009E00030688007F4D42FB1DBF8001021F080517B
:1009F000CBF80010A069C8B33D49091D0968C1F3CF
:100A0000810102294AD00228504607D0C8F8600068
:100A100000E03CE0FFF744FD04463BE04746C8F8F1
:100A20006000FFF73DFD064605E000BFFFF738FD1B
:100A3000801B02282BD828688001F7D4D4E907014D
:100A40000843A16A2E4A490802EB0141626A41EA61
:100A50008211084394F82C1040EA0161C9F8001093
:100A600001203866FFF71CFD044606E03EE000BFAB
:100A7000FFF716FD001B022809D828688001F7D56A
:100A800034E000BFFFF70CFD001B022802D9032051
:100A9000BDE8F88F28688001F4D427E00128F7D05A
:100AA000D9F80000E26900F4800191421CD1226A69
:100AB00000F03F01914217D147F6C071626A0140D0
:100AC000B1EB821F10D1A26A4FF0FF3300F4403126
:100AD00003EB5202B1EB024F06D194F82C1000F058
:100AE0007060B0EB016F01D00120D1E70020CFE7AB
:100AF0000438024000004742800E47420070004028
:100B00000000FFFF10B5401EB0F1807F01D301202F
:100B100010BD4FF0E02460610F21601700F00CFF62
:100B20000020A06107202061002010BD70477047A1
:100B300070B590F83C20012A32D0012480F83C4066
:100B4000022280F83D2003685A689D6822F07006F2
:100B50000A6832435A60134B02689A4214D0B2F1C9
:100B6000804F11D0104B9A420ED0104B9A420BD0AE
:100B70000F4B9A4208D00F4B9A4205D00E4B9A4227
:100B800002D00E4B9A4204D1496825F080031943E4
:100B9000916080F83D40002180F83C10084670BD0F
:100BA000022070BD00000140000400400008004029
:100BB000000C0040000401400040014000180040CB
:100BC00010B5040003D094F83D0010B107E00120F7
:100BD00010BD002084F83C00204600F01FF80220E1
:100BE00084F83D00211D206800F068FD012084F894
:100BF000460084F83E0084F83F0084F8400084F802
:100C0000410084F8420084F8430084F8440084F8EA
:100C1000450084F83D00002010BD000070B586B08E
:100C2000044614216846FFF705FB3A4A256800246C
:100C30003849103A02233848B5F1804F24D0374E56
:100C4000B54242D10D6845F002050D60096801F01A
:100C500002010591116841F002011160116801F073
:100C60000201059122218DE81A00CDE9034369466E
:100C7000FFF720FB002211461D20FFF77FFC1D20FF
:100C8000FFF76EFC06B070BD0D6845F001050D6004
:100C9000096801F001010591116841F0020111603C
:100CA000116801F00201059140F608018DE81A0073
:100CB0000121CDE903416946FFF7FCFA0022114604
:100CC0001C20FFF75BFC1C20DAE715488542D9D1D0
:100CD000086840F004000860086800F0040005900F
:100CE000106840F0080010601068694600F00800C5
:100CF00005904FF420408DE81900CDE903430948E1
:100D0000FFF7D8FA002211461E20FFF737FC1E20FD
:100D1000B6E70000403802400004024000040040F2
:100D200000080040000C024070B50646006800252F
:100D3000604CB0F1804F3BD1307F02281AD10421A2
:100D4000304600F0ADFA206090B10021304600F04E
:100D5000A7FA6421606048432168B0FBF1F0E060CD
:100D6000FFF7D8FC21684000B0FBF1F0A06001E083
:100D7000E560A560307F08281AD10C21304600F0CC
:100D80008FFA206090B10821304600F089FA642182
:100D9000606048432168B0FBF1F06061FFF7BAFC86
:100DA00021684000B0FBF1F0206101E06561256140
:100DB0004149306888423BD1307F02281AD1042152
:100DC000304600F06DFA206090B10021304600F00E
:100DD00067FA6421606048432168B0FBF1F0E0618C
:100DE000FFF798FC21684000B0FBF1F0A06101E042
:100DF000E561A561307F08281AD10C21304600F04A
:100E00004FFA206090B10821304600F049FA642181
:100E1000606048432168B0FBF1F06062FFF77AFC44
:100E200021684000B0FBF1F0206201E065622562BC
:100E300022493068884238D1307F02281AD10421F3
:100E4000304600F02DFA206090B10021304600F0CD
:100E500027FA6421606048432168B0FBF1F0E0624A
:100E6000FFF758FC21684000B0FBF1F0A06201E000
:100E7000E562A562307F082817D10C21304600F0CA
:100E80000FFA206090B10821304600F009FA642181
:100E9000606048432168B0FBF1F06063FFF73AFC03
:100EA00021684000B0FBF1F0206370BD65632563ED
:100EB00070BD000000000020000400400008004059
:100EC0002DE9F041054690F83C000C46012836D04B
:100ED000012085F83C008AB3042A42D02868082AF9
:100EE00051D0D4E90023E168066A26F480560662F0
:100EF000C669076A26F4407646EA03234FF6FF7672
:100F000006EA013123F4704319434FF4204627F4D5
:100F1000204306EA02321A43C16102622868C169AD
:100F200021F44061C1612868C169A26841EA0221D7
:100F3000C161002085F83C00BDE8F08101E002209D
:100F4000FAE7D4E90012E368286800F087FC286813
:100F5000816921F00C01816128688169A2681143CF
:100F60000FE0D4E90012E368286800F0C9FC2868A3
:100F7000816921F44061816128688169A26841EA40
:100F800002218161D5E7D4E90027267B016A21F49B
:100F900080710162C169036A21F00301394321F0C4
:100FA000F00731074FF4206647EA116123F420630C
:100FB00006EA02221A43C16102622868C16921F06F
:100FC0000C01C1612868C169A2681143B0E710B57E
:100FD000040003D094F83D0010B107E0012010BDDB
:100FE000002084F83C00204600F01EF8022084F81F
:100FF0003D00211D206800F061FB012084F84600BF
:1010000084F83E0084F83F0084F8400084F84100F2
:1010100084F8420084F8430084F8440084F84500D2
:1010200084F83D00002010BD7047000010B5044654
:1010300051B104290DD0082910D094F8410094F83A
:101040004520012811D10EE094F83E0094F842208A
:10105000F7E794F83F0094F84320F2E794F8400053
:1010600094F84420EDE7012A01D0012010BD0220B0
:1010700051B1042911D0082918D084F8410084F80E
:1010800045000C291BD142E084F83E0084F8420060
:101090002068C26842F0020210E084F83F0084F841
:1010A00043002068C26842F0040207E084F8400070
:1010B00084F844002068C26842F00802C26001223D
:1010C000206800F05FFB14492068884214D0B0F11A
:1010D000804F11D0114988420ED0114988420BD05F
:1010E0001049884208D01049884205D00F498842EB
:1010F00002D00F49884204D1816801F00701062916
:1011000003D0016841F001010160002010BD20689A
:10111000C26842F01002D1E7000001400004004024
:1011200000080040000C0040000401400040014065
:101130000018004070B50446006801694FF00005D2
:10114000C943890715D4C168C943890711D4E91E69
:10115000016101202077206880698007204602D045
:10116000FFF7E2FD04E000F098F8204600F096F862
:10117000257720680169C943490717D4C168C94365
:10118000490713D46FF00401016102202077206821
:10119000806910F4407F204602D0FFF7C5FD04E0CF
:1011A00000F07BF8204600F079F825772068016987
:1011B000C943090716D4C168C943090712D46FF09F
:1011C00008010161042020772068C069800720465B
:1011D00002D0FFF7A9FD04E000F05FF8204600F020
:1011E0005DF8257720680169C943C90617D4C1682D
:1011F000C943C90613D46FF010010161082020779C
:101200002068C06910F4407F204602D0FFF78CFDB3
:1012100004E000F042F8204600F040F8257720680E
:101220000169C943C90708D1C168C943C90704D1C5
:10123000891E0161204600F032F820680169C94327
:10124000090609D4C168C943090605D46FF08001B5
:1012500001612046FFF76AFC20680169C94349061D
:1012600009D4C168C943490605D46FF04001016142
:10127000204600F055F820680169C94389060BD45F
:10128000C168C943890607D46FF020010161204677
:10129000BDE87040FFF74BBC70BD704770477047AA
:1012A0000246002041B1042909D008290AD00C299E
:1012B00001D11068006C70471068406B704710686F
:1012C000806B70471068C06B704770B5044690F82B
:1012D0003C00012812D0012584F83C50022084F8FB
:1012E0003D00204600F065FA01004FF0000007D0F5
:1012F00084F83D5084F83C00012070BD022070BD90
:101300002168CA6822F04002CA602168CA6822F4D3
:101310008042CA6084F83D5084F83C00002070BDD3
:101320007047FEE70D4808B5016841F08001016093
:10133000016801F080010091016841F00201016043
:10134000016801F002010091016841F008010160AB
:10135000006800F00800009008BD0000303802402E
:1013600070B58CB0142104A8FEF764FF0024304847
:101370000A9409940094019402944FF080410394DC
:10138000C0E900144FF6FF71C0E9024104618461B5
:10139000FFF716FC08B1FEF78BFF2548FFF717FE95
:1013A00008B1FEF785FF042004906020CDE9050414
:1013B00004A91F480894FFF788FF08B1FEF778FFDB
:1013C000099409A91A480A94FFF7B2FB08B1FEF77D
:1013D0006FFF02250095CDE90154002269461448AB
:1013E0000394FFF76DFD08B1FEF762FF0126CDE91A
:1013F0000046042269460E48FFF762FD08B1FEF779
:1014000057FF00950822694609480195FFF758FDE6
:1014100008B1FEF74DFFCDE900460C2269460448AD
:10142000FFF74EFD002801D0FEF742FF0CB070BD63
:101430004800002070B58CB0142104A8FEF7FAFE15
:10144000002431480A9409940094019402942D498F
:101450000394C0E900144FF6FF71C0E90241046132
:101460008461FFF7ADFB08B1FEF722FF2648FFF7C6
:10147000AEFD08B1FEF71CFF042004906020CDE90A
:10148000050404A920480894FFF71FFF08B1FEF7E0
:101490000FFF099409A91C480A94FFF749FB08B1FA
:1014A000FEF706FF02250095CDE9015400226946AA
:1014B00015480394FFF704FD08B1FEF7F9FE012675
:1014C000CDE90046042269460F48FFF7F9FC08B150
:1014D000FEF7EEFE0095082269460B480195FFF7DE
:1014E000EFFC08B1FEF7E4FECDE900460C226946A8
:1014F0000548FFF7E5FC002801D0FEF7D9FE0CB047
:1015000070BD0000000400409000002070B58CB059
:10151000142104A8FEF78EFE002431480A94099491
:101520000094019402942D490394C0E900144FF6ED
:10153000FF71C0E9024104618461FFF741FB08B11A
:10154000FEF7B6FE2648FFF742FD08B1FEF7B0FEF3
:10155000042004906020CDE9050404A920480894E3
:10156000FFF7B3FE08B1FEF7A3FE099409A91C48D2
:101570000A94FFF7DDFA08B1FEF79AFE02250095FE
:10158000CDE901540022694615480394FFF798FC01
:1015900008B1FEF78DFE0126CDE90046042269461A
:1015A0000F48FFF78DFC08B1FEF782FE0095082278
:1015B00069460B480195FFF783FC08B1FEF778FEFA
:1015C000CDE900460C2269460548FFF779FC002862
:1015D00001D0FEF76DFE0CB070BD000000080040A9
:1015E000D8000020FEE7FEE770477047FEF75EBFB9
:1015F00030B593B030216846FEF71CFE14210CA8CC
:10160000FEF718FE1E480025016841F08051016078
:10161000006800F0805011901A48016841F4804140
:1016200001600068022400F48040119001200090C5
:10163000000401908001CDE90640192008904FF484
:10164000A870CDE9090404200B906846FFF7A4F8C0
:1016500008B172B6FEE70CA90F2081E831004FF403
:10166000A0500F904FF48050109005210CA8FEF769
:10167000B7FF002801D072B6FEE713B030BD0000FE
:1016800040380240007000400248016841F4700197
:101690000160704788ED00E00148FFF74BBD000096
:1016A000480000200148FFF745BD000090000020E1
:1016B0000148FFF73FBD0000D8000020F0B50268E8
:1016C000254C264D264E274F274B4FF0804CA042ED
:1016D00009D0604507D0A84205D0B04203D0B84237
:1016E00001D0984204D122F0700E4A6842EA0E02FC
:1016F000A0421BD0604519D0A84217D0B04215D0E7
:10170000B84213D0984211D0184DA8420ED0184DAF
:10171000A8420BD0174DA84208D0174DA84205D0BB
:10172000164DA84202D0164DA84203D122F44075AE
:10173000CA682A434D6922F080022A4302608A68FF
:10174000C2620A688262A04201D0984201D109694E
:10175000016301214161F0BD00000140000400402F
:1017600000080040000C004000040140004001401F
:10177000004401400048014000180040001C0040A7
:101780000020004010B501F01F030121046A9940B8
:101790008C430462016A9A401143016210BD10B586
:1017A000846842EA032224F47F440A43224382608D
:1017B00010BD10B503689A6822F070044A6822438D
:1017C00022F007040A6822439A604A6812F00F0F59
:1017D00030D11211082A2DD2DFE802F02C2C2C2C4B
:1017E0000B2127040B69D1E902210068FFF7D7FF1D
:1017F00020E00A68052A10D00268136A146A24F0EF
:101800000104146202689469096924F0F00444EA4E
:1018100001119161006803620CE0012010BD0A69AA
:101820008968006800F008F804E00A6989680068BF
:1018300000F054F8002010BD10B5036A046A24F0CB
:1018400001040462846924F0F00444EA021423F0E1
:101850000A020A438461026210BD000070B5046A86
:1018600024F0010404628469056A154EB04214D064
:10187000B0F1804F11D0134EB0420ED0124EB04294
:101880000BD0124EB04208D0114EB04205D0114ECE
:10189000B04202D0104EB04203D124F003041443EE
:1018A00001E044F001041A0724F0F00444EA126253
:1018B00025F00A0301F00A0119438261016270BD3B
:1018C000000001400004004000080040000C0040FF
:1018D00000040140004001400018004010B5036AB8
:1018E00023F0100303628369046A23F4704343EA1C
:1018F000023224F0A00343EA01118261016210BDAB
:1019000030B5046A24F0100404628469056A24F482
:10191000407444EA022222F470444FF6FF7202EA55
:1019200003322243A02425F0A00304EA0111194345
:101930008261016230BDFEE70907090E002804DB61
:1019400000F1E02080F80014704700F00F0000F173
:10195000E02080F8141D704702E008C8121F08C17B
:10196000002AFAD170477047002001E001C1121F20
:10197000002AFBD170470000FEF7A0FDFFF738FEFC
:10198000FFF7D0FCFFF7ECFCFFF754FDFFF7BEFDBF
:1019900000211848FFF74AFB04211648FFF746FBD1
:1019A00008211448FFF742FB0C211248FFF73EFBC9
:1019B00000211148FFF73AFB04210F48FFF736FBDF
:1019C00008210D48FFF732FB0C210B48FFF72EFBD7
:1019D00000210A48FFF72AFB04210848FFF726FBED
:1019E00008210648FFF722FB0C210448FFF71EFBE5
:1019F000FEE700004800002090000020D8000020F2
:101A000000000000000000000102030406070809AE
:101A10000000000001020304381A00080000002042
:101A20004800000058190008801A000848000020EB
:101A3000D804000068190008000000000000000041
:101A40000000000000000000000000000000000096
:101A50000000000000000000000000000000000086
:101A60000000000000000000000000000000000076
:101A70000100000010000000000000000024F4003D
:040000050800018965
:00000001FF
