:020000040800F2
:1000000060040020A1010008D3100008B90F000807
:10001000D1100008AD0200085314000800000000D1
:10002000000000000000000000000000D7100008E1
:10003000AF02000800000000D5100008D910000829
:10004000BB010008BB010008BB010008BB010008A0
:10005000BB010008BB010008BB010008BB01000890
:10006000BB010008BB010008BB010008BB01000880
:10007000BB010008BB010008BB010008BB01000870
:10008000BB010008BB010008BB010008BB01000860
:10009000BB010008BB010008BB010008BB01000850
:1000A000BB010008BB010008BB010008BB01000840
:1000B000BB010008BB010008BB010008BB01000830
:1000C000BB010008BB010008BB010008BB01000820
:1000D000BB010008BB010008BB010008BB01000810
:1000E000BB010008BB010008BB010008BB01000800
:1000F000BB010008BB010008BB010008BB010008F0
:10010000BB010008BB010008BB010008BB010008DF
:10011000BB010008BB010008BB010008BB010008CF
:10012000BB010008BB010008BB010008BB010008BF
:10013000BB010008BB010008BB010008BB010008AF
:10014000BB010008BB010008BB010008BB0100089F
:10015000BB010008BB010008BB010008BB0100088F
:10016000BB010008BB010008BB010008BB0100087F
:10017000BB010008BB010008BB0100080000000033
:10018000BB010008BB010008DFF810D000F07CF8CC
:100190000048004795140008AFF300806004002079
:1001A0000648804706480047FEE7FEE7FEE7FEE711
:1001B000FEE7FEE7FEE7FEE7FEE7FEE77111000857
:1001C000890100082DE9F05F0546002092469B4614
:1001D00088460646814640241BE02846414647465D
:1001E000224600F041F853465A46C01A914110D3B6
:1001F00011461846224600F028F82D1A67EB010830
:100200004F4622460120002100F01FF817EB00099D
:100210004E41201EA4F10104DFDC484631462A4647
:100220004346BDE8F09FD2B201E000F8012B491E21
:10023000FBD270470022F6E710B513460A46044683
:100240001946FFF7F0FF204610BD202A04DB203AB4
:1002500000FA02F1002070479140C2F1200320FA19
:1002600003F3194390407047202A04DB203A21FA17
:1002700002F00021704721FA02F3D040C2F12002BF
:100280009140084319467047064C074D06E0E06868
:1002900040F0010394E8070098471034AC42F6D3CD
:1002A000FFF776FFF014000810150008FEE770470E
:1002B00072B6FEE770B5044600F004F90546601C0E
:1002C00002D004480078044400F0FCF8401BA0422F
:1002D000FAD370BD040000202DE9F84FDFF8B8A173
:1002E000002201250AF1040B03264FF00F090BF140
:1002F000040E00BF0B6805FA02F42340A3426FD13D
:100300000F7907F00307012F01D0022F16D187685C
:100310004FEA420806FA08FC27EA0C07D1F80CC09D
:100320000CFA08FC4CEA070CC0F808C04768A74361
:100330000C79C4F3001494403C4344600C79E443CA
:10034000A4070AD0C4684FEA420C06FA0CF7BC4373
:100350008F6807FA0CF72743C7600C7904F0030491
:10036000022C12D1D40800EB840CDCF82040570793
:10037000FF0E09FA07F824EA0804D1F8108008FAF9
:1003800007F848EA0408CCF8208004684FEA420CD9
:1003900006FA0CF7BC430F7907F0030707FA0CF7CE
:1003A000274307604C68E40070D53C4C276847F44D
:1003B00080472760246822F0030704F480440094F7
:1003C000374C07EB040CDCF8084897074FEA17781E
:1003D00009FA08F7BC43334FB84202D1002724E0A2
:1003E00054E0314FB84201D101271EE02F4FB842EF
:1003F00001D1022719E02E4FB84201D1032714E0A2
:100400002C4FB84201D104270FE02B4FB84201D145
:1004100005270AE0294FB84201D1062705E0284FF9
:10042000B84201D1072700E0082707FA08F7274359
:10043000CCF80878DAF800405746D1F804C09C435D
:100440005FEACC3C00D51C433C60DBF800405F46D3
:10045000D1F804C09C435FEA8C3C00D51C433C604F
:10046000DEF800407746D1F804C09C435FEACC2C0C
:1004700000D51C433C60084F0C373C68D1F804C0E1
:100480009C435FEA8C2C00D51C433C60521C102A14
:10049000FFF430AFBDE8F88F003C01404438024023
:1004A0000030014000000240000402400008024009
:1004B000000C0240001002400014024000180240EC
:1004C000001C0240014880687047000004000020C2
:1004D000024881680278114481607047040000205E
:1004E0000B4810B5016841F400710160016841F4E6
:1004F00080610160016841F480710160032000F0B7
:1005000061F8002000F006F800F024F8002010BD8B
:10051000003C024070B50D4D04464FF47A712878C6
:10052000B1FBF0F00A490968B1FBF0F000F0DEFA27
:1005300048B9102C07D200222146501E00F022F8A4
:1005400000206C6070BD012070BD00000400002020
:10055000100000200A4808B5016841F4804101609C
:10056000006800F4804000900548001F016841F0D9
:1005700080510160006800F08050009008BD0000CC
:1005800044380240F0B40E4B1B680C46C3F3022300
:10059000C3F10705042D00D90425191D072901D22F
:1005A000002300E0DB1E012606FA05F1491E21406A
:1005B00099409E40761E16403143F0BC00F04ABF81
:1005C0000CED00E0064900F0070208684FF6FF0353
:1005D000184040EA0220034A1043086070470000B8
:1005E0000CED00E00000FA052DE9F0470E4605008D
:1005F00065D0DFF81481D8F80000F7B200F00700EA
:10060000B04207D288F80070D8F8000000F0070068
:10061000B04254D128683D4C810712D5400703D51C
:10062000206840F4E05020602878000703D5206857
:1006300040F4604020602068A96820F0F000084382
:1006400020602878C0072DD0304968680839012813
:1006500012D0022813D0032811D009688907002975
:100660002DDA216821F0030101432160FFF72AFF01
:10067000814641F2883A0EE009688903EFE709688C
:100680008901ECE7FFF71EFFA0EB0901514502D9F4
:100690000320BDE8F0872068696800F00C00B0EB2B
:1006A000810FEFD1D8F80010404601F00701B142A8
:1006B00007D90770006800F00700B04201D00120A0
:1006C000E7E72878400705D52068E96820F4E0507E
:1006D000084320602878000706D52068296920F49F
:1006E000604040EAC100206000F018F82168084A24
:1006F000C1F30311515CC840064908600648006810
:10070000FFF708FF0020C4E7003C02400838024021
:10071000E01400081000002008000020154810B563
:10072000006810F00C02144813D01449042A0FD0AA
:10073000082A0ED10F4C241F2268236802F03F02C2
:100740005B0207D52068C0F38810A0FB010106E01A
:10075000084610BD2168C1F38811A1FB00010023E8
:10076000FFF730FD2168C1F30141491C4900B0FB8E
:10077000F1F010BD083802400024F40040787D01FB
:100780002DE9F84F04006ED02078DFF84C93C007B5
:10079000A9F104054AD009F104000168C1F38101FF
:1007A000012908D00068C0F3810002280AD1D9F8D5
:1007B0000000400206D52868800337D5606800280D
:1007C000E1D033E06068B0F5803F10D0B0F5A02FE5
:1007D000286810D020F480302860286820F4802019
:1007E00028606068A8B1FFF76DFE06460DE0286836
:1007F00040F48030F4E740F480202860F7E700BF41
:10080000FFF760FE801B642873D828688003F7D543
:100810000CE0FFF757FE064605E000BFFFF752FE6B
:10082000801B6428F0D828688003F7D42078DFF88C
:10083000AC8280074FF0000A3ED5A748001D016832
:1008400011F00C0F08D00068C0F3810002280BD112
:10085000D9F80000400207D42868800716D5E06860
:10086000012800D112E033E1E068B8B10120C8F8F6
:100870000000FFF727FE064605E000BFFFF722FE57
:10088000801B0228C0D828688007F7D5286821690E
:1008900020F0F80040EAC10028600DE0C8F800A090
:1008A000FFF710FE064604E0FFF70CFE801B02284F
:1008B0001FD828688007F7D42078000722D5864FF4
:1008C00087486169703771B101210160FFF7FAFD56
:1008D000064604E0FFF7F6FD801B022809D83868B9
:1008E0008007F7D50EE0C0F800A0FFF7EBFD064645
:1008F00005E082E0FFF7E6FD801B02287DD838681E
:100900008007F7D42078400768D5DFF8CCB10027FE
:100910000BF13C0BDBF80000C0000BD4DBF800103F
:1009200041F08051CBF80010DBF80000012700F007
:10093000805000906B4E3068C00510D4306840F491
:1009400080703060FFF7BEFD009005E0FFF7BAFD54
:100950000099401A022850D83068C005F6D55E4E7E
:10096000A0686C3601280FD00528306810D020F020
:1009700001003060306820F004003060A068B8B139
:10098000FFF7A0FD00900FE0306840F00100F4E7B1
:1009900040F004003060F7E7FFF794FD0099411A3A
:1009A00041F28830814266D830688007F4D50EE085
:1009B000FFF788FD009007E0FFF784FD0099411ADA
:1009C00041F28830814256D830688007F4D42FB184
:1009D000DBF8001021F08051CBF80010A069C8B3FB
:1009E0003D49091D0968C1F3810102294AD0022845
:1009F000504607D0C8F8600000E03CE0FFF762FD19
:100A000004463BE04746C8F86000FFF75BFD06463A
:100A100005E000BFFFF756FD801B02282BD8286891
:100A20008001F7D4D4E907010843A16A2E4A490896
:100A300002EB0141626A41EA8211084394F82C10EA
:100A400040EA0161C9F8001001203866FFF73AFD5D
:100A5000044606E03EE000BFFFF734FD001B02281D
:100A600009D828688001F7D534E000BFFFF72AFDD8
:100A7000001B022802D90320BDE8F88F28688001F6
:100A8000F4D427E00128F7D0D9F80000E26900F497
:100A9000800191421CD1226A00F03F01914217D19E
:100AA00047F6C071626A0140B1EB821F10D1A26AA1
:100AB0004FF0FF3300F4403103EB5202B1EB024F31
:100AC00006D194F82C1000F07060B0EB016F01D0EB
:100AD0000120D1E70020CFE7043802400000474260
:100AE000800E4742007000400000FFFF10B5401E1E
:100AF000B0F1807F01D3012010BD4FF0E024606190
:100B00000F21601700F0A6FC0020A06107202061E3
:100B1000002010BD10B590F83C20012A22D00122FF
:100B200080F83C20CA688C6822F4407222434C68EA
:100B300022F4806222430C6822F4006222430C6992
:100B400022F4805222434C6922F400522243C969A4
:100B5000002322F480420A4301684A6480F83C3052
:100B6000002010BD022010BD70B590F83C20012A75
:100B700032D0012480F83C40022280F83D200368F6
:100B80005A689D6822F070060A6832435A60134B17
:100B900002689A4214D0B2F1804F11D0104B9A42A1
:100BA0000ED0104B9A420BD00F4B9A4208D00F4BED
:100BB0009A4205D00E4B9A4202D00E4B9A4204D173
:100BC000496825F080031943916080F83D40002179
:100BD00080F83C10084670BD022070BD0000014046
:100BE0000004004000080040000C004000040140E8
:100BF000004001400018004010B5040003D094F8F4
:100C00003D0010B107E0012010BD002084F83C0039
:100C1000204600F01FF8022084F83D00211D2068C6
:100C200000F0AEFA012084F8460084F83E0084F813
:100C30003F0084F8400084F8410084F8420084F8C2
:100C4000430084F8440084F8450084F83D00002007
:100C500010BD000008B500680649884208D1064862
:100C6000016841F001010160006800F0010000909E
:100C700008BD0000000001404438024070B5044641
:100C800090F83C00012817D0012584F83C50022040
:100C900084F83D002068826822F0770222F47F42C7
:100CA00082600868502830D00DDC20284DD005DC4B
:100CB00098B310283BD148E0022070BD302844D0C2
:100CC000402834D139E0602828D0702806D0B0F50B
:100CD000805F2CD0B0F5005F29D10AE0CB68D1E964
:100CE0000121206800F0BDFA2068816841F0770199
:100CF00009E0CB68D1E90121206800F0B2FA206850
:100D0000816841F48041816011E0CA6849682068C7
:100D100000F07CFB5021206807E016E0CA684968B3
:100D2000206800F084FB6021206800F0A4FA84F8B9
:100D30003D50002084F83C0070BDCA6849682068B6
:100D400000F064FB40212068EFE72268014610466E
:100D5000EBE7000070B586B0044614216846FFF743
:100D600069FA16492068884226D11548002401688E
:100D700041F002010160016801F002010591016882
:100D800041F0100101600068012502260095CDE9BF
:100D9000016400F01000CDE904506946039409484D
:100DA000FFF79AFA68020090CDE9016469460648A7
:100DB000CDE90345FFF790FA06B070BD0000014091
:100DC00030380240000402400010024070B5044672
:100DD00090F83C000D4601280AD0012084F83C0020
:100DE00042B1042A18D0082A2AD00C2A4DD139E061
:100DF000022070BD206800F047FA2068816941F048
:100E0000080181612068816921F004018161206805
:100E100081692A69114311E0206800F065FA2068B1
:100E2000816941F4006181612068816921F48061F8
:100E30008161206881692A6941EA0221816124E097
:100E4000206800F087FA2068C16941F00801C1619B
:100E50002068C16921F00401C1612068C1692A6963
:100E6000114311E0206800F0A9FA2068C16941F43B
:100E70000061C1612068C16921F48061C16120689D
:100E8000C1692A6941EA0221C161002084F83C005D
:100E900070BD10B5040003D094F83D0010B107E018
:100EA000012010BD002084F83C00204600F01EF810
:100EB000022084F83D00211D206800F061F9012026
:100EC00084F8460084F83E0084F83F0084F840002F
:100ED00084F8410084F8420084F8430084F8440018
:100EE00084F8450084F83D00002010BD70470000E4
:100EF00010B50446022249B104290ED0082913D0A6
:100F000094F84100012816D0012010BD94F83E004D
:100F10000128F9D184F83E200FE094F83F00012821
:100F2000F2D184F83F2008E094F840000128EBD18A
:100F300084F8402001E084F841200122206800F07C
:100F400083F916492068164A884201D0904203D19D
:100F5000436C43F4004343642068884213D0B0F1EB
:100F6000804F10D00F4988420DD00F4988420AD0D7
:100F70000E49884207D0904205D00D49884202D0E0
:100F80000C49884204D1816801F00701062903D089
:100F9000016841F001010160002010BD0000014026
:100FA000000401400004004000080040000C004024
:100FB0000040014000180040FEE700000D4808B561
:100FC000016841F080010160016801F08001009139
:100FD000016841F002010160016801F00201009125
:100FE000016841F010010160006800F010000090FD
:100FF00008BD00003038024010B596B000240F94B0
:1010000010941194129413941C2168461494FFF7C1
:1010100011F9202107A8FFF70DF92C482A49016092
:101020005321C0E901146321C0E9031444618461C0
:10103000FFF7E2FD08B1FFF73BF94FF480500F9046
:101040000FA92248FFF71AFE08B1FFF731F91F4830
:10105000FFF71FFF08B1FFF72BF9139413A91B48E3
:101060001494FFF781FD08B1FFF722F96020CDE964
:1010700000040294039404940594002269461348E2
:101080000694FFF7A3FE08B1FFF712F904226946A0
:101090000E48FFF79BFE08B1FFF70AF90794089482
:1010A00009944FF400500A94CDE90B4007A9074872
:1010B0000E94FFF72FFD08B1FFF7FAF80348FFF78A
:1010C00049FE16B010BD00000000014014000020D1
:1010D000FEE7FEE770477047FFF7FAB930B593B007
:1010E00030216846FFF7A6F814210CA8FFF7A2F8F4
:1010F0001D480025016841F080510160006800F042
:10110000805011901948016841F4804101600068E5
:10111000022400F4804011900120039010200490DC
:10112000009406940820CDE90750A820CDE90904D1
:1011300004200B906846FFF723FB08B172B6FEE768
:101140000CA90F2081E831004FF4A0500F904FF40C
:101150008050109005210CA8FFF746FA002801D016
:1011600072B6FEE713B030BD403802400070004058
:101170000248016841F470010160704788ED00E0A9
:10118000F0B50268254C264D264E274F274B4FF0D1
:10119000804CA04209D0604507D0A84205D0B0429B
:1011A00003D0B84201D0984204D122F0700E4A68B0
:1011B00042EA0E02A0421BD0604519D0A84217D0C7
:1011C000B04215D0B84213D0984211D0184DA84261
:1011D0000ED0184DA8420BD0174DA84208D0174D7D
:1011E000A84205D0164DA84202D0164DA84203D100
:1011F00022F44075CA682A434D6922F080022A43CE
:1012000002608A68C2620A688262A04201D0984283
:1012100001D10969016301214161F0BD0000014074
:101220000004004000080040000C004000040140A1
:1012300000400140004401400048014000180040C7
:10124000001C00400020004010B501F01F030121E8
:10125000046A99408C430462016A9A401143016216
:1012600010BD10B5846842EA032224F47F440A4387
:101270002243826010BD826822F070020A4342F06D
:101280000701816070470000F0B5026A22F0010298
:101290000262036A42688469124E24F073050C6886
:1012A0002C4323F002058B682B430D4DA84201D03F
:1012B000B04205D123F00807CB683B4323F0040379
:1012C000A84201D0B04205D14D6922F440721543C5
:1012D0008A692A4342608461496841630362F0BDC0
:1012E0000000014000040140F0B5026A22F0100243
:1012F0000262026A436884690D6824F4E64444EAA1
:1013000005248D6822F0200242EA05120F4D104E8E
:10131000A84201D0B04206D1CF6822F0800242EA52
:10132000071222F04002A84201D0B04207D14D6915
:1013300023F4406343EA85038D6943EA85034360F0
:101340008461496881630262F0BD000000000140D1
:1013500000040140F0B5026A22F480720262026A5F
:101360004368C46922F4007224F073050C68124EBD
:101370002C438D6842EA05220E4DA84201D0B042AE
:1013800006D1CF6822F4006242EA072222F480628A
:10139000A84201D0B04207D14D6923F4405343EA3B
:1013A00005138D6943EA05134360C4614968C1634D
:1013B0000262F0BD000001400004014030B5026A45
:1013C00022F480520262046A4268C3690D6823F401
:1013D000E64343EA05238D6824F4005444EA0534C7
:1013E000084DA84202D0084DA84204D14D6922F40C
:1013F000804242EA85124260C36149680164046226
:1014000030BD0000000001400004014010B5036A37
:10141000046A24F001040462846924F0F00444EABC
:10142000021423F00A020A438461026210BD10B55F
:10143000036A23F0100303628369046A23F4704390
:1014400043EA023224F0A00343EA011182610162FF
:1014500010BDFEE70907090E002804DB00F1E020BB
:1014600080F80014704700F00F0000F1E02080F8D1
:10147000141D704702E008C8121F08C1002AFAD1E3
:1014800070477047002001E001C1121F002AFBD104
:1014900070470000FFF724F8FFF720FEFFF78EFDEE
:1014A000FFF7AAFD04210C48FFF722FD00210A489E
:1014B000FFF71EFD094CFD26B5072078642110FBBF
:1014C00001F0B0FBF6F0C0B26070A8636863084634
:1014D000FEF7F0FEF1E700001400002000000020FD
:1014E00000000000000000000102030406070809D4
:1014F00010150008000000201400000074140008FB
:1015000024150008140000204C0400008414000876
:101510006400000001000000100000000000000056
:041520000024F400AF
:040000050800018965
:00000001FF
